:100000000C9434000C9451000C9451000C94510049
:100010000C9451000C9451000C9451000C9451001C
:100020000C9451000C9451000C9451000C9411024A
:100030000C94BF010C9451000C9451000C9451008D
:100040000C9451000C9451000C9464010C945100D8
:100050000C94A7010C9451000C9451000C94510085
:100060000C9451000C94510011241FBECFEFD8E026
:10007000DEBFCDBF11E0A0E0B1E0EAEFFDE002C0DD
:1000800005900D92AE31B107D9F728E0AEE1B1E0AD
:1000900001C01D92A637B207E1F70E94A4020C949A
:1000A000FB060C940000ECE7F0E080818F77808302
:1000B00080818F7B8083EAE7F0E0808185688083A0
:1000C0000895EAE7F0E080818823E9F36091780001
:1000D0007091790080E090E008950F931F930E9443
:1000E00061009B01AC01A8EEB3E00E941204DC01A8
:1000F000CB01072E7AE0B695A795979587957A95C7
:10010000D1F7702D8C019D01000F111F221F331F8D
:10011000000F111F221F331FBC01CD01600F711F83
:10012000821F931F1F910F910895ECE7F0E08081EB
:10013000807F8083EAE7F0E08081806480830E9492
:100140006D009B01AC01ABE1B0E00E94120424E61B
:1001500030E040E050E00E94E103CA01B901089597
:10016000ECE7F0E08081817F808380818160808303
:10017000EAE7F0E08081806480830E946D009B014B
:10018000AC01ABE1B0E00E94120424E630E040E0B4
:1001900050E00E94E103CA01B9010895ECE7F0E0E4
:1001A0008081827F8083808182608083EAE7F0E0C3
:1001B0008081806480830E946D00AB01BC01440F8C
:1001C000551F661F771FDB01CA01880F991FAA1FE1
:1001D000BB1F880F991FAA1FBB1F840F951FA61F47
:1001E000B71FBC01CD01605D77408109910920E313
:1001F00030E040E050E00E94E103CA01B901660F1F
:10020000771F881F991F660F771F881F991F0895F2
:10021000E1E8F0E080818B608083EFE6F0E08081B0
:1002200086608083089590938900809388007093FE
:100230008B0060938A0008959093C5008093C4005A
:10024000E1ECF0E080E9808380818864808386E04F
:100250008093C2000895E1ECF0E090819F7E90834E
:1002600090819F779083E0ECF0E090819923E9F30F
:100270008093C6000895CF93C82F8A3019F48DE07B
:100280000E942B018C2F0E942B0180E090E0CF91E7
:100290000895C097E4E6E89F9001E99F300D11248E
:1002A00060537109CB01880F991F660F771F660F86
:1002B000771F660F771F680F791F620F731FCA01C0
:1002C000C097860F971F08951F920F920FB60F9237
:1002D00011248F939F93EF93FF938091C600809397
:1002E0006F0880914B0190914C01019690934C01C5
:1002F00080934B0180914B0190914C0145974CF0BC
:10030000E0914B01F0914C0180916F08E25FFE4F4C
:10031000808380914B0190914C0186977CF0E1ECB9
:10032000F0E080818F77808380818F7E808381E081
:1003300080934D0110924C0110924B01FF91EF916F
:100340009F918F910F900FBE0F901F9018951F9245
:100350000F920FB60F9211248F93EF93FF93E1EC5E
:10036000F0E0808180618083808180688083FF915C
:10037000EF918F910F900FBE0F901F9018951F92C5
:100380000F920FB60F9211248F939F9380911401B7
:10039000811104C080911301882351F080914F0195
:1003A0009091500180911001891758F02A9809C046
:1003B00080914F019091500180911001891708F0B0
:1003C00029989F918F910F900FBE0F901F901895B5
:1003D00080910E0190910F014DE7489F9001499F38
:1003E000300D11243695279536952795ABE7B4E166
:1003F0000E9403049695879508956091110170916C
:1004000012012091100188E893E10E94CD03621B44
:1004100071098DE7282F269FC001279F900D112479
:1004200008951F920F920FB60F9211242F933F93AE
:100430004F935F936F937F938F939F93AF93BF93EC
:10044000EF93FF9380911401811104C080911301F7
:100450008823B9F19091500180911001891760F0C3
:1004600080914F01811108C02A9A5D9A80915001B4
:100470008F5F8093500157C090915001809110017F
:100480008917A0F45D982A980E94FD016FEF7FEF15
:100490000E94130180911301811102C01092140176
:1004A0001092500181E080934F013DC010924F01A6
:1004B0000E94E801682F70E08DE790E00E94130130
:1004C00032C09091500180911001891760F08091A5
:1004D0004F01811108C05E9A299A809150018F5F67
:1004E0008093500120C09091500180911001891794
:1004F00080F45E9829980E94FD016FEF7FEF0E94C3
:10050000130181E0809314011092500180934F01F8
:100510000AC010924F010E94E801682F70E08DE739
:1005200090E00E941301FF91EF91BF91AF919F91D5
:100530008F917F916F915F914F913F912F910F908C
:100540000FBE0F901F90189580E091E09093730874
:1005500080937208789483E390E00E941C010E94CB
:1005600053000E94080184B1866084B98AB1806614
:100570008AB90F2EF3E2EF2EF1E0FF2EF02D05E108
:1005800011E0C9E1D1E010921F0110921E011092FA
:10059000200180914D01882319F1F7014281618189
:1005A000808150E070E090E00E9449019093220128
:1005B0008093210180912101909122010E942B01C1
:1005C00080E090E0FC01ED5DFE4F108201968632E6
:1005D0009105C1F710924D0110924C0110924B0100
:1005E00080914E0180911F01823808F0D3C0A09005
:1005F0001F01B12C0E949500F501EE0FFF1FEE0FB9
:10060000FF1FE75AFC4F6083718382839383A0901E
:100610001F01B12C0E94B000F501EE0FFF1FEE0F7D
:10062000FF1FEF5AFE4F6083718382839383A090F4
:100630001F01B12C0E94CE00F501EE0FFF1FEE0F3F
:10064000FF1FEF59FA4F6083718382839383E09198
:100650001F01F0E0EE0FFF1FEE0FFF1FEF5AFE4FDE
:1006600080819181A281B381BF93AF939F938F9338
:100670001F930F930E941D04E0911F01F0E0EE0F05
:10068000FF1FEE0FFF1FE75AFC4F80819181A2816F
:10069000B381BF93AF939F938F93DF93CF930E94C8
:1006A0001D0480911F018F5F80931F0180911F01A6
:1006B000EDB7FEB73C960FB6F894FEBF0FBEEDBF88
:1006C000823808F494CF66C09C01220F331F220F9A
:1006D000331FF901EF5AFE4F4081518162817381CE
:1006E000F901E75AFC4F80809180A280B3804819BD
:1006F0005909FC01EE0FFF1FE559F84F5183408364
:1007000020813181332364F4FC01EE0FFF1FE55992
:10071000F84F208131813195219531093183208332
:10072000FC01EE0FFF1FE559F84F20813181208138
:100730003181FC01EE0FFF1FEE0FFF1FEF59FA4F43
:1007400040815181628173814081518162817381D5
:1007500001968238910509F0B7CF80E090E0FC0166
:10076000EE0FFF1FE559F84F20813181FC01EE0F9C
:10077000FF1FEE0FFF1FEF59FA4F40815181628139
:10078000738101968238910551F782E890E00197D4
:10079000F1F7F9CE80E090E097CFAA1BBB1B51E1A7
:1007A00007C0AA1FBB1FA617B70710F0A61BB70BE1
:1007B000881F991F5A95A9F780959095BC01CD0186
:1007C0000895A1E21A2EAA1BBB1BFD010DC0AA1F92
:1007D000BB1FEE1FFF1FA217B307E407F50720F0AA
:1007E000A21BB30BE40BF50B661F771F881F991F25
:1007F0001A9469F760957095809590959B01AC016E
:10080000BD01CF010895A29FB001B39FC001A39F76
:10081000700D811D1124911DB29F700D811D112439
:10082000911D08950E940304A59F900DB49F900D03
:10083000A49F800D911D11240895A0E0B0E0E3E293
:10084000F4E00C94D406AE014B5F5F4FFA01619166
:100850007191AF0180917208909173080E943304E6
:10086000E2E00C94F006ABE0B0E0E9E3F4E00C94D5
:10087000C4066C017B018A01FC0117821682838108
:1008800081FFCCC1CE0101963C01F6019381F701B5
:1008900093FD859193FF81917F01882309F4BAC16B
:1008A000853239F493FD859193FF81917F018532E3
:1008B00029F4B60190E00E942A06E7CF912C212C62
:1008C000312CFFE1F315D8F08B3279F038F4803217
:1008D00079F08332A1F4232D20611DC08D3261F0A7
:1008E000803369F4232D216016C0832D8260382E59
:1008F000E32DE4603E2E2AC0F32DF8601DC037FCC6
:100900002DC020ED280F2A3040F08E32B9F436FC8D
:1009100081C1232D2064322E19C036FE06C08AE024
:10092000989E200D1124922E11C0EAE02E9E200DDB
:100930001124222EF32DF0623F2E08C08C3621F4B4
:10094000832D8068382E02C0883641F4F70193FD6C
:10095000859193FF81917F018111B3CF982F9F7D66
:100960009554933028F40C5F1F4F9FE399830DC07B
:10097000833631F0833771F0833509F059C021C0D7
:10098000F801808189830E5F1F4F88248394912C06
:10099000530113C02801F2E04F0E511CF801A08052
:1009A000B18036FE03C0692D70E002C06FEF7FEFAB
:1009B000C5010E941F064C018201F32DFF773F2ED7
:1009C00016C0280122E0420E511CF801A080B1801F
:1009D00036FE03C0692D70E002C06FEF7FEFC501E6
:1009E0000E9414064C01F32DF0683F2E820133FC67
:1009F0001BC0822D90E088169906B0F4B60180E203
:100A000090E00E942A062A94F4CFF50137FC8591E4
:100A100037FE81915F01B60190E00E942A06211005
:100A20002A9421E0821A91088114910471F7E8C098
:100A3000843611F0893641F5F80137FE07C0608130
:100A40007181828193810C5F1F4F08C06081718129
:100A5000072E000C880B990B0E5F1F4FF32DFF76AE
:100A60003F2E97FF09C090958095709561957F4FB7
:100A70008F4F9F4FF0683F2E2AE030E0A3010E9485
:100A80006606882E861845C0853731F4232D2F7EC3
:100A9000B22E2AE030E025C0932D997FB92E8F36F3
:100AA000C1F018F4883579F0B5C0803719F088376F
:100AB00021F0B0C0E92FE061BE2EB4FE0DC0FB2DC9
:100AC000F460BF2E09C034FE0AC0292F2660B22E62
:100AD00006C028E030E005C020E130E002C020E19F
:100AE00032E0F801B7FE07C0608171818281938195
:100AF0000C5F1F4F06C06081718180E090E00E5F47
:100B00001F4FA3010E946606882E8618FB2DFF77D3
:100B10003F2E36FE0DC0232D2E7FA22E891458F4B1
:100B200034FE0BC032FC09C0832D8E7EA82E05C07A
:100B3000B82CA32C03C0B82C01C0B92CA4FE0FC044
:100B4000FE01E80DF11D8081803321F49A2D997EFC
:100B5000A92E09C0A2FE06C0B394B39404C08A2D86
:100B6000867809F0B394A3FC11C0A0FE06C0B214AD
:100B700088F4280C922C9B180EC0B21460F4B601B5
:100B800080E290E00E942A06B394F7CFB21418F4E2
:100B90002B1802C0982C212CA4FE10C0B60180E3B3
:100BA00090E00E942A06A2FE17C0A1FC03C088E7BD
:100BB00090E002C088E590E0B6010CC08A2D8678EE
:100BC00059F0A1FE02C08BE201C080E2A7FC8DE2D9
:100BD000B60190E00E942A06891438F4B60180E339
:100BE00090E00E942A069A94F7CF8A94F301E80DC8
:100BF000F11D8081B60190E00E942A068110F5CF98
:100C0000222009F442CEB60180E290E00E942A063A
:100C10002A94F6CFF6018681978102C08FEF9FEF6D
:100C20002B96E2E10C94E006FC01059061507040C7
:100C30000110D8F7809590958E0F9F1F0895FC01A5
:100C40006150704001900110D8F7809590958E0FFB
:100C50009F1F08950F931F93CF93DF93FB01238171
:100C600021FD03C08FEF9FEF2CC022FF16C04681ED
:100C70005781248135814217530744F4A081B18103
:100C80009D012F5F3F4F318320838C9326813781D5
:100C90002F5F3F4F3783268314C08B01EC01FB018C
:100CA0000084F185E02D0995892BE1F6D80116968F
:100CB0008D919C911797019617969C938E931697FA
:100CC000CE01DF91CF911F910F910895FA01AA27CC
:100CD000283051F1203181F1E8946F936E7F6E5F7F
:100CE0007F4F8F4F9F4FAF4FB1E03ED0B4E03CD02D
:100CF000670F781F891F9A1FA11D680F791F8A1F10
:100D0000911DA11D6A0F711D811D911DA11D20D076
:100D100009F468943F912AE0269F11243019305D30
:100D20003193DEF6CF010895462F4770405D419321
:100D3000B3E00FD0C9F7F6CF462F4F70405D4A336E
:100D400018F0495D31FD4052419302D0A9F7EACF36
:100D5000B4E0A6959795879577956795BA95C9F765
:100D600000976105710508959B01AC010A2E069458
:100D70005795479537952795BA95C9F7620F731F11
:100D8000841F951FA01D08952F923F924F925F924E
:100D90006F927F928F929F92AF92BF92CF92DF928B
:100DA000EF92FF920F931F93CF93DF93CDB7DEB7F0
:100DB000CA1BDB0B0FB6F894DEBF0FBECDBF099484
:100DC0002A88398848885F846E847D848C849B84DB
:100DD000AA84B984C884DF80EE80FD800C811B81E9
:100DE000AA81B981CE0FD11D0FB6F894DEBF0FBE18
:0A0DF000CDBFED010895F894FFCF88
:100DFA0000000002000000003B0100000000320079
:0E0E0A0020410001012564090025640A000052
:00000001FF
