S01800004C696E656172436F6E74726F6C6C65722E737265638D
S11300000C9434000C9451000C9451000C94510045
S11300100C9451000C9451000C9451000C94510018
S11300200C9451000C9451000C9451000C949300C6
S11300300C9428010C9451000C9451000C94510020
S11300400C9451000C9451000C9447010C945100F1
S11300500C9451000C9451000C9451000C945100D8
S11300600C9451000C94510011241FBECFEFD8E022
S1130070DEBFCDBF11E0A0E0B1E0E2E0F3E002C0FA
S113008005900D92A230B107D9F721E0A2E0B1E0CA
S113009001C01D92A530B207E1F70E946D010C94D6
S11300A07F010C940000ECE7F0E08081806880839D
S11300B0808180648083808185608083EAE7F0E0CA
S11300C080818668808380818E7F80830895E1E8C3
S11300D0F0E0808189608083EFE6F0E080818660D3
S11300E080830895909389008093880070938B0097
S11300F060938A000895E5ECF0E02081922B9083D0
S1130100E4ECF0E09081892B8083E1ECF0E08081E5
S113011088698083E2ECF0E08081866080830895C2
S11301208091C60008951F920F920FB60F9211246A
S11301302F933F934F935F936F937F938F939F93EB
S1130140AF93BF93EF93FF93809100018823C1F194
S113015080910301893C68F480910201811109C0F6
S113016085B1866085B9809103018F5F8093030117
S11301705EC080910301893CA8F029982A98E1E89F
S1130180F0E080818260808360E070E088EB9BE037
S11301900E947200109200011092030181E080938A
S11301A0020145C0E1E8F0E080818D7F80831092F8
S11301B0020160E471E080E991E00E94720037C0BE
S11301C080910301893C68F480910201811109C086
S11301D08BB180668BB9809103018F5F809303019B
S11301E026C080910301893CA8F05E985D98E1E8FF
S11301F0F0E080818260808360E070E088EB9BE0C7
S11302000E94720081E080930001109203018093A8
S113021002010DC0E1E8F0E080818D7F80831092BF
S1130220020160E471E080E991E00E947200FF91B4
S1130230EF91BF91AF919F918F917F916F915F915A
S11302404F913F912F910F900FBE0F901F901895D3
S11302501F920F920FB60F9211248F938091000179
S1130260882341F08091020180910301893C48F484
S1130270299807C08091020180910301893C08F408
S11302805E988F910F900FBE0F901F9018951F923C
S11302900F920FB60F9211242F933F934F935F93B6
S11302A06F937F938F939F93AF93BF93EF93FF933A
S11302B00E94900080930401FF91EF91BF91AF9150
S11302C09F918F917F916F915F914F913F912F916A
S11302D00F900FBE0F901F901895789463E370E011
S11302E080E090E00E947B000E9453000E9467001F
S11302F084B1866084B98AB180668AB9FFCFF894E4
S1050300FFCF29
S10503020100F4
S9030000FC
