S01800004C696E656172436F6E74726F6C6C65722E737265638D
S11300000C9434000C9451000C9451000C94510045
S11300100C9451000C9451000C9451000C94510018
S11300200C9451000C9451000C9451000C947401E4
S11300300C9424010C9451000C9451000C94510024
S11300400C9451000C9451000C94C9000C94510070
S11300500C940C010C9451000C9451000C9451001C
S11300600C9451000C94510011241FBECFEFD8E022
S1130070DEBFCDBF11E0A0E0B1E0ECE5F5E002C0E9
S113008005900D92A831B107D9F726E0A8E1B1E0B7
S113009001C01D92A839B207E1F70E9407020C942F
S11300A0AC020C940000ECE7F0E080818F77808351
S11300B080818F7B80838081877F80838081826041
S11300C08083EAE7F0E080818668808380818E7F88
S11300D080838081806480830895E1E8F0E08081FA
S11300E08B608083EFE6F0E08081866080830895F2
S11300F0909389008093880070938B0060938A00AA
S113010008959093C5008093C400E1ECF0E080E989
S1130110808380818864808386E08093C200089510
S1130120E1ECF0E090819F7E908390819F779083B3
S1130130E0ECF0E090819923E9F38093C600089500
S1130140CF93C82F8A3019F48DE00E9490008C2F31
S11301500E94900080E090E0CF910895C097E4E67B
S1130160E89F9001E99F300D112460537109CB0180
S1130170880F991F660F771F660F771F660F771F0B
S1130180680F791F620F731FCA01C097860F971FEC
S113019008951F920F920FB60F9211248F939F937D
S11301A0EF93FF938091C600809391068091420162
S11301B09091430101969093430180934201809171
S11301C042019091430145974CF0E0914201F09136
S11301D0430180919106EB5FFE4F80838091420141
S11301E09091430186977CF0E1ECF0E080818F7779
S11301F0808380818F7E808381E08093440110928C
S1130200430110924201FF91EF919F918F910F90C2
S11302100FBE0F901F9018951F920F920FB60F925A
S113022011248F93EF93FF93E1ECF0E080818061E0
S11302308083808180688083FF91EF918F910F90FC
S11302400FBE0F901F9018951F920F920FB60F922A
S113025011248F939F9380911601811104C0809182
S11302601501882351F080914501909146018091B8
S11302701201891758F02A9809C08091450190917C
S1130280460180911201891708F029989F918F9156
S11302900F900FBE0F901F90189520910E01309172
S11302A00F014091100150911101ADE7B0E00E949F
S11302B07E0224E630E040E050E00E945C02822F9F
S11302C00895609113012091120170E088E893E190
S11302D00E944802621B71098DE7282F269FC001E6
S11302E0279F900D112408951F920F920FB60F921D
S11302F011242F933F934F935F936F937F938F9327
S11303009F93AF93BF93EF93FF9380911601811155
S113031004C0809115018823B9F190914601809120
S11303201201891760F080914501811108C02A9A51
S11303305D9A809146018F5F8093460157C09091EA
S11303404601809112018917A0F45D982A980E94B1
S113035061016FEF7FEF0E94780080911501811198
S113036002C0109216011092460181E0809345016B
S11303703DC0109245010E944D01682F70E08DE749
S113038090E00E94780032C0909146018091120161
S1130390891760F080914501811108C05E9A299AFD
S11303A0809146018F5F8093460120C09091460161
S11303B080911201891780F45E9829980E94610146
S11303C06FEF7FEF0E94780081E080931601109216
S11303D04601809345010AC0109245010E944D01D7
S11303E0682F70E08DE790E00E947800FF91EF9114
S11303F0BF91AF919F918F917F916F915F914F9139
S11304003F912F910F900FBE0F901F90189580E091
S113041091E09093950680939406789483E390E01A
S11304200E9481000E9453000E946D0084B1866086
S113043084B98AB180668AB9539ACAE1D1E08091BD
S11304404401882311F14A816981888150E070E078
S113045090E00E94AE00909319018093180180915E
S11304601801909119010E94900080E090E0FC0135
S1130470E65EFE4F1082019686329105C1F7109216
S11304804401109243011092420180911401D7CF8C
S113049097FB072E16F4009407D077FD09D00E942D
S11304A0890207FC05D03EF4909581959F4F0895ED
S11304B0709561957F4F0895A1E21A2EAA1BBB1B6C
S11304C0FD010DC0AA1FBB1FEE1FFF1FA217B3071C
S11304D0E407F50720F0A21BB30BE40BF50B661F32
S11304E0771F881F991F1A9469F7609570958095F6
S11304F090959B01AC01BD01CF0108950E949D021E
S1130500A59F900DB49F900DA49F800D911D112463
S11305100895AA1BBB1B51E107C0AA1FBB1FA61746
S1130520B70710F0A61BB70B881F991F5A95A9F798
S113053080959095BC01CD010895A29FB001B39F11
S1130540C001A39F700D811D1124911DB29F700DD8
S10F0550811D1124911D0895F894FFCF23
S113055C0000000200000000A000000000003200B7
S10B056C00002041010101001F
S9030000FC
