:100000000C9434000C9451000C9451000C94510049
:100010000C9451000C9451000C9451000C9451001C
:100020000C9451000C9451000C9451000C94F30565
:100030000C94A1050C9451000C9451000C945100A7
:100040000C9451000C9451000C9437050C94510001
:100050000C9489050C9451000C9451000C9451009F
:100060000C9451000C94510011241FBECFEFD8E026
:10007000DEBFCDBF11E0A0E0B1E0ECEFF1E102C0E6
:1000800005900D92A631B107D9F728E0A6E1B1E0BD
:1000900001C01D92A73EB207E1F70E9492060C94A0
:1000A000FC080C940000ECE7F0E080818F778083FF
:1000B00080818F7B8083EAE7F0E08081876880839E
:1000C0000895EAE7F0E080818823E9F36091780001
:1000D0007091790080E090E008950F931F930E9443
:1000E00061009B01AC01A8EEB3E00E94F108DC01C5
:1000F000CB01072E7AE0B695A795979587957A95C7
:10010000D1F7702D8C019D01000F111F221F331F8D
:10011000000F111F221F331FBC01CD01600F711F83
:10012000821F931F1F910F910895ECE7F0E08081EB
:10013000807F8083EAE7F0E08081806480830E9492
:100140006D009B01AC01ABE1B0E00E94F10824E638
:1001500030E040E050E00E94C008CA01B9010895B3
:10016000ECE7F0E08081817F808380818160808303
:10017000EAE7F0E08081806480830E946D009B014B
:10018000AC01ABE1B0E00E94F10824E630E040E0D1
:1001900050E00E94C008CA01B9010895E1E8F0E00A
:1001A00080818B608083EFE6F0E0808186608083D1
:1001B0000895909389008093880070938B006093DA
:1001C0008A0008959093C5008093C400E1ECF0E0AC
:1001D00080E9808380818864808386E08093C20088
:1001E0000895E1ECF0E090819F7E908390819F776D
:1001F0009083E0ECF0E090819923E9F38093C600CE
:10020000089580915B018F3F49F483E690E09093DD
:100210005801809357011092130155C080915B01E2
:10022000882331F180915B01833B10F580911301AC
:1002300081110AC0809111019091120196958795C4
:10024000909312018093110181E0809313018091BA
:100250005B012EE1829FC00111248C5E9A4F64E6FF
:1002600070E00E94AC0870935801609357012BC056
:1002700080915B01833B18F180915B018F3FF9F026
:1002800080911301882351F0809111019091120106
:10029000880F991F909312018093110110921301FE
:1002A00080915B0125E2829FC001112464E670E029
:1002B0000E94AC08709358016093570104C01092DB
:1002C00058011092570110925A010895DF92EF924F
:1002D000FF920F931F93CF93DF93182FD62F8DE0AC
:1002E0000E94F1008BE70E94F1008AE00E94F10079
:1002F0008DE00E94F10082E20E94F10083E30E94FF
:10030000F10082E20E94F1008AE30E94F1008AE09B
:100310000E94F1008DE00E94F1008BE70E94F10045
:100320008AE00E94F1008DE00E94F10082E20E94CA
:10033000F1008DE60E94F10086E60E94F10083E65E
:100340000E94F10082E20E94F1008AE30E94F10023
:100350008BE70E94F10082E20E94F10082E70E9496
:10036000F10085E60E94F10081E70E94F10082E23F
:100370000E94F1008AE30E94F10082E20E94F100F3
:10038000C9E21C9F212D112422952F700CE9020334
:10039000C0011124810F911D0F2EFAE0EF2EF12CD8
:1003A000F02DB7010E94AC08D62E209F100D11240D
:1003B000962F990F892F880F880F890F181B822F6E
:1003C0000E9490060E94F1008D2D0E9490060E94CE
:1003D000F100812F0E9490060E94F10082E20E94AB
:1003E000F1008CE20E94F10082E20E94F10083E6BB
:1003F0000E94F10085E70E94F10082E70E94F1006F
:1004000082E20E94F1008AE30E94F10082E20E94EF
:10041000F100DC9F212D112422952F700203C001D1
:1004200011248D0F911DB7010E94AC08C62F209F8B
:10043000D00D1124962F990F892F880F880F890FBF
:10044000D81B822F0E9490060E94F1008C2F0E94E0
:1004500090060E94F1008D2F0E9490060E94F100EC
:1004600082E20E94F1008DE70E94F1008CE20E947E
:10047000F1008AE00E94F1008DE00E94F100DF911E
:10048000CF911F910F91FF90EF90DF90089582E23E
:100490000E94F10086E70E94F10085E60E94F100CB
:1004A00082E70E94F10082E20E94F1008AE30E944A
:1004B000F10082E20E94F10081E30E94F1008EE2ED
:1004C0000E94F10082E30E94F1008EE20E94F1009E
:1004D00083E30E94F10082E20E94F1008CE20E941C
:1004E000F1008AE00E94F1008DE00E94F100089581
:1004F0008F929F92AF92BF92CF92DF92EF92FF9234
:100500000F931F93CF93DF93D82F962E69017A0113
:1005100082E20E94F10080E70E94F10081E60E94E1
:10052000F10082E70E94F10081E60E94F1008DE671
:100530000E94F10082E20E94F1008AE30E94F10031
:100540008BE70E94F10082E20E94F10080E70E94A6
:10055000F10087E70E94F10082E70E94F10082E249
:100560000E94F1008AE30E94F10082E20E94F10001
:10057000C9E2DC9F212D112422952F701CE9120362
:10058000C00111248D0F911D0F2EFAE0AF2EB12C5A
:10059000F02DB5010E94AC08862E219FD00D1124AC
:1005A000962F990F892F880F880F890FD81B822FBC
:1005B0000E9490060E94F100882D0E9490060E94E1
:1005C000F1008EE20E94F1008D2F0E9490060E94A1
:1005D000F10087E50E94F10082E20E94F1008CE2C6
:1005E0000E94F10082E20E94F10086E60E94F10082
:1005F00082E70E94F10085E60E94F10081E70E94F7
:10060000F10082E20E94F1008AE30E94F10082E29E
:100610000E94F1008DEC989E812D1124869586957F
:100620008695282F220F922F990F990F920F991AC2
:100630000E9490060E94F100892D0E9490060E945F
:10064000F10088E40E94F1008AE70E94F10082E252
:100650000E94F1008CE20E94F10082E20E94F1000F
:1006600083E60E94F10085E70E94F10082E70E9484
:10067000F10082E70E94F10082E20E94F1008AE329
:100680000E94F10082E20E94F1000C9F212D1124B2
:1006900022952F701203C0011124800F911DB50106
:1006A0000E94AC08C62F219F000D1124962F990F90
:1006B000892F880F880F890F081B822F0E949006B0
:1006C0000E94F1008C2F0E9490060E94F100802F62
:1006D0000E9490060E94F1008DE60E94F10081E4E4
:1006E0000E94F10082E20E94F1008CE20E94F1007F
:1006F00082E20E94F10086E70E94F1008FE60E94EC
:10070000F1008CE60E94F10084E70E94F10082E291
:100710000E94F1008AE30E94F10082E20E94F1004F
:10072000C701B60128EE33E040E050E00E94C00867
:10073000D22F28EE33E0D29FC001D39F900D112419
:10074000092E000CAA0BBB0B46015701881A990A07
:10075000AA0ABB0AC501B40124E630E040E050E03B
:100760000E94C008C22F14E6129FC0011124092E56
:10077000000CAA0BBB0BA5019401281B390B4A0BDB
:100780005B0BCA01B9012AE030E040E050E00E9472
:10079000C008022F38E1D39FC00C11241C9FC01841
:1007A0001124902F990F892F880F880F890FC81A4D
:1007B0008D2F0E9490060E94F1008C2F0E949006BF
:1007C0000E94F1008EE20E94F100802F0E949006AC
:1007D0000E94F1008C2D0E9490060E94F10086E597
:1007E0000E94F10082E20E94F1008DE70E94F10078
:1007F0008CE20E94F1008AE00E94F1008DE00E94EC
:10080000F100DF91CF911F910F91FF90EF90DF905A
:10081000CF90BF90AF909F908F900895CF93DF932C
:10082000D82FC62F80912A01882351F182E20E949D
:10083000F10083E60E94F1008CE60E94F10082E75D
:100840000E94F10082E20E94F1008AE30E94F1001E
:1008500082E20E94F10085E60E94F10087E70E9493
:10086000F10082E20E94F1008CE20E94F1008AE035
:100870000E94F1008DE00E94F10010922A0136C022
:100880008AE00E94F1008DE00E94F100C1117CC05D
:10089000D11145C025C082E20E94F10083E60E948A
:1008A000F1008FE60E94F1008CE60E94F1008CE6D8
:1008B0000E94F10089E60E94F10083E70E94F100A6
:1008C00089E60E94F1008FE60E94F1008EE60E9408
:1008D000F10082E20E94F1008DE50E94F10006C065
:1008E0008AE00E94F1008DE00E94F1008AE00E94FF
:1008F000F1008DE00E94F1008DE70E94F1008AE096
:100900000E94F1008DE00E94F1008DE70E94F1004D
:100910008AE00E94F1008DE00E94F1004BC082E26B
:100920000E94F10085E60E94F10087E70E94F10035
:1009300082E20E94F1008AE30E94F1008BE50E94AE
:10094000F10082E20E94F1008AE60E94F10081E655
:100950000E94F1008DE60E94F10082E20E94F10007
:10096000BBCF82E20E94F1008AE60E94F10081E69C
:100970000E94F1008DE60E94F10082E20E94F100E7
:100980008CE20E94F10087CF82E20E94F10085E6AE
:100990000E94F10087E70E94F10082E20E94F100CC
:1009A0008AE30E94F1008BE50E94F100DD2309F447
:1009B00072CFD7CFDF91CF9108954F925F926F9210
:1009C0007F928F92AF92CF92EF92FF920F931F93ED
:1009D000CF93DF93CDB7DEB7182FF62E29013A015A
:1009E0008A2D682D0E9466010E944702A301920190
:1009F0006F2D812F0E9478026C2D8E2D0E940E0487
:100A0000DF91CF911F910F91FF90EF90CF90AF901A
:100A10008F907F906F905F904F900895CF93C82FE5
:100A20008A3019F48DE00E94F1008C2F0E94F100B1
:100A300080E090E0CF910895C097E4E6E89F9001B0
:100A4000E99F300D112460537109CB01880F991F64
:100A5000660F771F660F771F660F771F680F791F66
:100A6000620F731FCA01C097860F971F08951F92C8
:100A70000F920FB60F9211248F939F93EF93FF93D2
:100A80008091C6008093E0088091540190915501B7
:100A90000196909355018093540180915401909157
:100AA000550145974CF0E0915401F091550180912A
:100AB000E008E95EFE4F80838091540190915501DA
:100AC00082974CF0E0915401F09155018091E0083B
:100AD000EC50FF4F8083809154019091550186978F
:100AE0007CF0E1ECF0E080818F77808380818F7EE5
:100AF000808381E080935601109255011092540139
:100B0000FF91EF919F918F910F900FBE0F901F90CB
:100B100018951F920F920FB60F9211248F93EF9397
:100B2000FF93E1ECF0E080818061808380818068C8
:100B30008083FF91EF918F910F900FBE0F901F90C8
:100B400018951F920F920FB60F9211248F939F93B7
:100B500080911401811104C080911301882351F008
:100B600080915C0190915D0180911001891758F08E
:100B70002A9809C080915C0190915D0180911001DB
:100B8000891708F029989F918F910F900FBE0F90B1
:100B90001F90189580915701909158014DE7489FFB
:100BA0009001499F300D112436952795369527954C
:100BB000ABE7B4E10E94E2089695879508956091AD
:100BC0001101709112012091100188E893E10E94B7
:100BD0009808621B71098DE7282F269FC001279F67
:100BE000900D112408951F920F920FB60F921124A9
:100BF0002F933F934F935F936F937F938F939F9325
:100C0000AF93BF93EF93FF9380911401811104C0C0
:100C1000809113018823E1F190915D018091100191
:100C2000891778F080915C0181110BC081E080937D
:100C300059012A9A5D9A80915D018F5F80935D01D1
:100C40005EC090915D01809110018917B0F41092FF
:100C500059015D982A980E94DF056FEF7FEF0E948F
:100C6000D90080911301811102C0109214011092D9
:100C70005D0181E080935C0142C010925C010E94A2
:100C8000CA05682F70E08DE790E00E94D90037C058
:100C900090915D0180911001891778F080915C013D
:100CA00081110BC081E0809359015E9A299A80914D
:100CB0005D018F5F80935D0122C090915D01809105
:100CC0001001891790F4109259015E9829980E949A
:100CD000DF056FEF7FEF0E94D90081E08093140160
:100CE00010925D0180935C010AC010925C010E9429
:100CF000CA05682F70E08DE790E00E94D900FF914F
:100D0000EF91BF91AF919F918F917F916F915F9183
:100D10004F913F912F910F900FBE0F901F901895FC
:100D2000805D0895CF93DF93CDB7DEB7C65ED14027
:100D30000FB6F894DEBF0FBECDBF80E091E0909378
:100D4000E4088093E308789483E390E00E94E20053
:100D50000E9453000E94CE0084B1866084B98AB19B
:100D600080668AB9D12C212C312CF12CCE01019630
:100D7000CF51DE4F99838883C15ED140FE01E3529B
:100D8000FE4FCD51DE4FF983E883C35ED1401F2D66
:100D90009D2C10922B01CF51DE4FE881F981C15E6D
:100DA000D14080EE91E011920197E9F780912B01FB
:100DB000883708F0A6C1F12E00912B0110E00E94A7
:100DC0009500000F111F000F111FF801E25CFC4F8E
:100DD000608371838283938300912B0110E00E94D2
:100DE000B000000F111F000F111FF801E25AFE4F53
:100DF000608371838283938380912B018F5F8093C3
:100E00002B0180912B018837B8F21F2D7AC12091D8
:100E100013012223A1F09C01220F331F220F331F45
:100E2000F901E25AFE4FC080D180E280F380F901DF
:100E3000E050F94FC082D182E282F38255C09C011A
:100E4000220F331F220F331FF901E25CFC4FC080D9
:100E5000D180E280F380F901E25AFE4F00811181D6
:100E6000228133810C151D052E053F05F8F49C01E8
:100E7000220F331F220F331FF901E25CFC4FC080A9
:100E8000D180E280F380F901E25AFE4F4080518028
:100E900062807380C418D508E608F708F901E050AD
:100EA000F94FC082D182E282F3821EC09C01220FE0
:100EB000331F220F331FF901E25AFE4FC080D18049
:100EC000E280F380F901E25CFC4F40805180628057
:100ED0007380C418D508E608F708F901E050F94F07
:100EE000C082D182E282F382FC01EE0FFF1FEE0F7F
:100EF000FF1FE050F94F0081118122813381400FA3
:100F0000511F621F731F01968837910509F07FCF2B
:100F10001A2FCB01BA0128E730E040E050E00E94F0
:100F2000C008E12FF0E0EE0FFF1FEE0FFF1FE25EA3
:100F3000FA4F20833183428353831F5F183771F543
:100F400080E090E0FC01EE0FFF1FEE0FFF1FE25E5E
:100F5000FA4F4081518162817381240E351E0196C2
:100F60008837910579F79101A9E8B8E80E94E2086D
:100F70001C010024220C331C001C220C331C001CFE
:100F8000232C302CE4E6E29DC001E39D900D11245A
:100F90006FE971E00E949808962E10E0CE0101964C
:100FA0005C016C01E12CF12CF701EE0FFF1FEE0F3D
:100FB000FF1FE050F94F20813181428153816081D0
:100FC0007181828193810E9488082FE931E040E09D
:100FD00050E00E94C008F601219331934193519350
:100FE0006F01FFEFEF1AFF0A28E7E216F104E1F6BE
:100FF000C12CD12C7601F5014191519161917191F2
:101000005F0180819181A281B381840F951FA61F0A
:10101000B71FB695A79597958795C80ED91EEA1E56
:10102000FB1ECD51DE4F88819981C35ED1408E1762
:101030009F0709F780915601882309F45FC040910A
:101040002E0160912D01ECE2F1E0808150E070E032
:1010500090E00E941C0580935B0180E090E0FC0121
:10106000E45DFE4F1082019686329105C1F79091A2
:101070001701E6E1F1E08081853629F481E09737B8
:1010800019F080E001C080E080932A0180912A015C
:10109000882321F010920E0110920F0180905B01C5
:1010A000A0905B01B0900E0100910F0180911101A1
:1010B00090911201CB51DE4F99838883C55ED14058
:1010C0002101612C712CC701B60127E730E040E017
:1010D00050E00E94C008822FCB2CE02E092DA301E6
:1010E0009201CB51DE4F6881C55ED1400E94DD0484
:1010F0001092560110925501109254010E94010164
:1011000048CE80E090E040E050E0BA01A12F7FCED1
:10111000DB018F939F930E94F108BF91AF91A29F33
:10112000800D911DA39F900DB29F900D11240895E5
:10113000AA1BBB1B51E107C0AA1FBB1FA617B707FD
:1011400010F0A61BB70B881F991F5A95A9F7809519
:101150009095BC01CD01089597FB072E16F40094DD
:1011600007D077FD09D00E94980807FC05D03EF40F
:10117000909581959F4F0895709561957F4F089543
:10118000A1E21A2EAA1BBB1BFD010DC0AA1FBB1F8B
:10119000EE1FFF1FA217B307E407F50720F0A21BFD
:1011A000B30BE40BF50B661F771F881F991F1A946A
:1011B00069F760957095809590959B01AC01BD0194
:1011C000CF010895A29FB001B39FC001A39F700DEE
:1011D000811D1124911DB29F700D811D1124911D3F
:1011E00008950E94E208A59F900DB49F900DA49FC2
:0C11F000800D911D11240895F894FFCF8C
:1011FC0000000002000000000E05000000000101CC
:06120C0020410001010079
:00000001FF
