:100000000C9434000C9451000C9451000C94510049
:100010000C9451000C9451000C9451000C9451001C
:100020000C9451000C9451000C9451000C945D01FF
:100030000C94CF000C9451000C9451000C9451007E
:100040000C9451000C9451000C94F2000C9451004B
:100050000C9451000C9451000C9451000C945100DC
:100060000C9451000C94510011241FBECFEFD8E026
:10007000DEBFCDBF11E0A0E0B1E0EEE0F5E002C0F0
:1000800005900D92A630B107D9F721E0A6E0B1E0C6
:1000900001C01D92AB30B207E1F70E9430010C9411
:1000A00085020C940000ECE7F0E08081856080839D
:1000B000EAE7F0E080818668808380818E7F80839C
:1000C0000895E1E8F0E080818B608083EFE6F0E066
:1000D0008081866080830895909389008093880052
:1000E00070938B0060938A000895E5ECF0E0208126
:1000F000922B9083E4ECF0E09081892B8083E1ECFB
:10010000F0E0808188698083E2ECF0E080818660A5
:10011000808308958091C600089581E0809307014F
:1001200080910701811106C0E4E6F0E080818F6EC6
:10013000808332C080910701882309F180910701F3
:10014000833BE8F48091070121E0823B08F420E042
:1001500030E040E050E063E67AEE83EA91E30E940B
:10016000F20120E836E94FEF5FEF0E94160230936C
:1001700001012093000181E0809308010DC080916E
:100180000701833B38F0809107018F3F19F01092EF
:10019000080102C0109208011092060108951F92F2
:1001A0000F920FB60F9211248F9380910401811149
:1001B00004C080910801882341F080910901809159
:1001C0000A018B3F48F4299807C08091090180916A
:1001D0000A018B3F08F45E988F910F900FBE0F902D
:1001E0001F9018951F920F920FB60F9211242F9304
:1001F0003F934F935F936F937F938F939F93AF93AF
:10020000BF93EF93FF930E948A008093070181E0E0
:1002100080930601FF91EF91BF91AF919F918F91D4
:100220007F916F915F914F913F912F910F900FBEF2
:100230000F901F90189580910001909101014DE75A
:10024000489F9001499F300D11243695279536958A
:100250002795ABE7B4E10E943502969587950895FE
:10026000789463E370E080E090E00E9475000E9463
:1002700053000E94610084B1866084B98AB18066AF
:100280008AB9809106018823E1F30E948D000E94C3
:100290001B01F7CF609103012091020170E084EF10
:1002A00091E00E940202621B71098DE7282F269FB0
:1002B000C001279F900D112408951F920F920FB631
:1002C0000F9211242F933F934F935F936F937F93DC
:1002D0008F939F93AF93BF93EF93FF93809104010C
:1002E000811104C0809108018823C1F190910A0115
:1002F00080910201891768F080910901811109C07C
:1003000085B1866085B980910A018F5F80930A016B
:1003100058C090910A01809102018917A0F4299890
:100320002A980E944A016FEF7FEF0E946C00809133
:100330000801811102C01092040110920A0181E0AB
:10034000809309013EC0109209010E941B01682F91
:1003500070E08DE790E00E946C0033C090910A013C
:1003600080910201891768F080910901811109C00B
:100370008BB180668BB980910A018F5F80930A01EF
:1003800020C090910A0180910201891780F45E9843
:100390005D980E944A016FEF7FEF0E946C0081E040
:1003A0008093040110920A01809309010AC01092FF
:1003B00009010E941B01682F70E08DE790E00E9408
:1003C0006C00FF91EF91BF91AF919F918F917F91C1
:1003D0006F915F914F913F912F910F900FBE0F90B2
:1003E0001F901895DB018F939F930E944402BF9149
:1003F000AF91A29F800D911DA39F900DB29F900D74
:100400001124089597FB072E16F4009407D077FD6A
:1004100009D00E944F0207FC05D03EF490958195CB
:100420009F4F0895709561957F4F0895052E97FB16
:100430001EF400940E942D0257FD07D00E94630213
:1004400007FC03D04EF40C942D0250954095309546
:1004500021953F4F4F4F5F4F089590958095709530
:1004600061957F4F8F4F9F4F0895A29FB001B39F1B
:10047000C001A39F700D811D1124911DB29F700DAD
:10048000811D1124911D08950E943502A59F900D94
:10049000B49F900DA49F800D911D11240895AA1B57
:1004A000BB1B51E107C0AA1FBB1FA617B70710F05F
:1004B000A61BB70B881F991F5A95A9F78095909591
:1004C000BC01CD010895A1E21A2EAA1BBB1BFD01A0
:1004D0000DC0AA1FBB1FEE1FFF1FA217B307E40723
:1004E000F50720F0A21BB30BE40BF50B661F771F7B
:1004F000881F991F1A9469F760957095809590955B
:0E0500009B01AC01BD01CF010895F894FFCF1F
:06050E0063001E0F010056
:00000001FF
