S01800004C696E656172436F6E74726F6C6C65722E737265638D
S11300000C9434000C9451000C9451000C94510045
S11300100C9451000C9451000C9451000C94510018
S11300200C9451000C9451000C9451000C946901EF
S11300300C9418010C9451000C9451000C94510030
S11300400C9451000C9451000C9451000C945100E8
S11300500C9451000C9451000C9451000C945100D8
S11300600C9451000C94510011241FBECFEFD8E022
S1130070DEBFCDBF11E0A0E0B1E0ECEBFBE002C0DD
S113008005900D92AC31B107D9F727E0ACE1B1E0AE
S113009001C01D92A332B207E1F70E94FC010C9447
S11300A0DC050C940000ECE7F0E080818F7780831E
S11300B080818F7B8083EAE7F0E08081856880839C
S11300C00895EAE7F0E080818823E9F360917800FD
S11300D07091790080E090E008950F931F930E943F
S11300E061009B01AC01A8EEB3E00E94E402DC01D4
S11300F0CB01072E7AE0B695A795979587957A95C3
S1130100D1F7702D8C019D01000F111F221F331F89
S1130110000F111F221F331FBC01CD01600F711F7F
S1130120821F931F1F910F910895ECE7F0E08081E7
S1130130807F8083EAE7F0E08081806480830E948E
S11301406D009B01AC01ABE1B0E00E94E40224E647
S113015030E040E050E00E94C202CA01B9010895B3
S1130160ECE7F0E08081817F8083808181608083FF
S1130170EAE7F0E08081806480830E946D009B0147
S1130180AC01ABE1B0E00E94E40224E630E040E0E0
S113019050E00E94C202CA01B9010895E1E8F0E00A
S11301A080818B608083EFE6F0E0808186608083CD
S11301B00895909389008093880070938B006093D6
S11301C08A000895E5ECF0E02081922B9083E4EC22
S11301D0F0E09081892B8083E1ECF0E080818960FC
S11301E08083A2ECB0E08C9186608C9380818068DF
S11301F080830895E1ECF0E090819F7E908390816C
S11302009F779083E0ECF0E090819923E9F3809369
S1130210C6000895CF93C82F8A3019F48DE00E9448
S1130220FA008C2F0E94FA0080E090E0CF910895AC
S11302301F920F920FB60F9211248F939F93809168
S11302401601811104C080911501882351F0809119
S11302501F019091200180911201891758F02A986A
S113026009C080911F01909120018091120189178A
S113027008F029989F918F910F900FBE0F901F90B7
S1130280189520910E0130910F0140911001509169
S11302901101ADE7B0E00E94E40224E630E040E062
S11302A050E00E94C202822F089560911301709160
S11302B014012091120188E893E10E94AE02621BAE
S11302C071098DE7282F269FC001279F900D1124C7
S11302D008951F920F920FB60F9211242F933F93FC
S11302E04F935F936F937F938F939F93AF93BF933A
S11302F0EF93FF9380911601811104C08091150141
S11303008823B9F19091200180911201891760F03E
S113031080911F01811108C02A9A5D9A8091200161
S11303208F5F8093200157C090912001809112012A
S11303308917A0F45D982A980E9455016FEF7FEF0A
S11303400E94D90080911501811102C010921601FA
S11303501092200181E080931F013DC010921F0183
S11303600E944101682F70E08DE790E00E94D9005F
S113037032C09091200180911201891760F0809120
S11303801F01811108C05E9A299A809120018F5F14
S11303908093200120C0909120018091120189173F
S11303A080F45E9829980E9455016FEF7FEF0E94B8
S11303B0D90081E0809316011092200180931F01DF
S11303C00AC010921F010E944101682F70E08DE75E
S11303D090E00E94D900FF91EF91BF91AF919F915E
S11303E08F917F916F915F914F913F912F910F90DA
S11303F00FBE0F901F90189580E091E09093200716
S113040080931F07789483E390E00E94E2000E94A7
S113041053000E94CE0084B1866084B98AB180669C
S11304208AB9539A2FE78EED9FE021508040904087
S1130430E1F700C0000007E111E010921D011092E5
S11304401C0110921E0180911D01823808F080C0A9
S1130450C0911D01D0E00E949500CC0FDD1FCC0F90
S1130460DD1FC75DDC4F688379838A839B83C091DA
S11304701D01D0E00E94B000CC0FDD1FCC0FDD1FAA
S1130480CF5DDE4F688379838A839B8380911D01CE
S11304908F5F80931D0180911D018238C8F258C07E
S11304A0CE01880F991F880F991FFC01EF5DFE4F45
S11304B04081518162817381FC01E75DFC4F808141
S11304C09181A281B381481B590BFE01EE0FFF1FDE
S11304D0EB54FA4F5183408380819181992364F4D2
S11304E0FE01EE0FFF1FEB54FA4F8081918191952D
S11304F08195910991838083FE01EE0FFF1FEB54D8
S1130500FA4F4081518120813181429FC001439F34
S1130510900D529F900D1124092E000CAA0BBB0BB9
S1130520C80ED91EEA1EFB1EFF92EF92DF92CF92F5
S11305301F930F930E94FE0221960F900F900F902D
S11305400F900F900F90C238D10509F0A9CF75CF45
S1130550C0E0D0E0C12CD12C7601A2CFAA1BBB1BDA
S113056051E107C0AA1FBB1FA617B70710F0A61BAF
S1130570B70B881F991F5A95A9F780959095BC01D0
S1130580CD010895A1E21A2EAA1BBB1BFD010DC0CB
S1130590AA1FBB1FEE1FFF1FA217B307E407F5072F
S11305A020F0A21BB30BE40BF50B661F771F881F0B
S11305B0991F1A9469F760957095809590959B01A1
S11305C0AC01BD01CF0108950E94EF02A59F900DDB
S11305D0B49F900DA49F800D911D11240895A29F96
S11305E0B001B39FC001A39F700D811D1124911D03
S11305F0B29F700D811D1124911D0895A0E0B0E0FB
S1130600E4E0F3E00C94B505AE014B5F5F4FFA01F3
S113061061917191AF0180911F07909120070E9411
S11306201403E2E00C94D105ABE0B0E0EAE1F3E0BE
S11306300C94A5056C017B018A01FC0117821682CA
S1130640838181FFCCC1CE0101963C01F6019381E7
S1130650F70193FD859193FF81917F01882309F42C
S1130660BAC1853239F493FD859193FF81917F015D
S1130670853229F4B60190E00E940B05E7CF912C56
S1130680212C312CFFE1F315D8F08B3279F038F4BA
S1130690803279F08332A1F4232D20611DC08D3284
S11306A061F0803369F4232D216016C0832D8260AC
S11306B0382EE32DE4603E2E2AC0F32DF8601DC0D1
S11306C037FC2DC020ED280F2A3040F08E32B9F4CB
S11306D036FC81C1232D2064322E19C036FE06C09B
S11306E08AE0989E200D1124922E11C0EAE02E9EDD
S11306F0200D1124222EF32DF0623F2E08C08C36DB
S113070021F4832D8068382E02C0883641F4F70125
S113071093FD859193FF81917F018111B3CF982F30
S11307209F7D9554933028F40C5F1F4F9FE399836A
S11307300DC0833631F0833771F0833509F059C029
S113074021C0F801808189830E5F1F4F8824839420
S1130750912C530113C02801F2E04F0E511CF801F3
S1130760A080B18036FE03C0692D70E002C06FEF37
S11307707FEFC5010E9400054C018201F32DFF7734
S11307803F2E16C0280122E0420E511CF801A08021
S1130790B18036FE03C0692D70E002C06FEF7FEFB9
S11307A0C5010E94F5044C01F32DF0683F2E82012F
S11307B033FC1BC0822D90E088169906B0F4B60174
S11307C080E290E00E940B052A94F4CFF50137FCF7
S11307D0859137FE81915F01B60190E00E940B057F
S11307E021102A9421E0821A91088114910471F74E
S11307F0E8C0843611F0893641F5F80137FE07C0A8
S113080060817181828193810C5F1F4F08C0608178
S11308107181072E000C880B990B0E5F1F4FF32D6F
S1130820FF763F2E97FF09C090958095709561954E
S11308307F4F8F4F9F4FF0683F2E2AE030E0A30197
S11308400E944705882E861845C0853731F4232D2C
S11308502F7EB22E2AE030E025C0932D997FB92E49
S11308608F36C1F018F4883579F0B5C0803719F0A7
S1130870883721F0B0C0E92FE061BE2EB4FE0DC070
S1130880FB2DF460BF2E09C034FE0AC0292F266058
S1130890B22E06C028E030E005C020E130E002C0FE
S11308A020E132E0F801B7FE07C0608171818281E6
S11308B093810C5F1F4F06C06081718180E090E0DE
S11308C00E5F1F4FA3010E944705882E8618FB2D3B
S11308D0FF773F2E36FE0DC0232D2E7FA22E8914C6
S11308E058F434FE0BC032FC09C0832D8E7EA82E32
S11308F005C0B82CA32C03C0B82C01C0B92CA4FE8D
S11309000FC0FE01E80DF11D8081803321F49A2D82
S1130910997EA92E09C0A2FE06C0B394B39404C064
S11309208A2D867809F0B394A3FC11C0A0FE06C0FA
S1130930B21488F4280C922C9B180EC0B21460F4E4
S1130940B60180E290E00E940B05B394F7CFB21495
S113095018F42B1802C0982C212CA4FE10C0B60148
S113096080E390E00E940B05A2FE17C0A1FC03C027
S113097088E790E002C088E590E0B6010CC08A2DBB
S1130980867859F0A1FE02C08BE201C080E2A7FC88
S11309908DE2B60190E00E940B05891438F4B6018B
S11309A080E390E00E940B059A94F7CF8A94F301B8
S11309B0E80DF11D8081B60190E00E940B058110C5
S11309C0F5CF222009F442CEB60180E290E00E94E5
S11309D00B052A94F6CFF6018681978102C08FEF2A
S11309E09FEF2B96E2E10C94C105FC010590615048
S11309F070400110D8F7809590958E0F9F1F089531
S1130A00FC016150704001900110D8F780959095D9
S1130A108E0F9F1F08950F931F93CF93DF93FB01B6
S1130A20238121FD03C08FEF9FEF2CC022FF16C04E
S1130A3046815781248135814217530744F4A081AC
S1130A40B1819D012F5F3F4F318320838C93268199
S1130A5037812F5F3F4F3783268314C08B01EC010E
S1130A60FB010084F185E02D0995892BE1F6D8017D
S1130A7016968D919C911797019617969C938E9339
S1130A801697CE01DF91CF911F910F910895FA012E
S1130A90AA27283051F1203181F1E8946F936E7FB9
S1130AA06E5F7F4F8F4F9F4FAF4FB1E03ED0B4E0AA
S1130AB03CD0670F781F891F9A1FA11D680F791FEB
S1130AC08A1F911DA11D6A0F711D811D911DA11DFC
S1130AD020D009F468943F912AE0269F112430190C
S1130AE0305D3193DEF6CF010895462F4770405DA7
S1130AF04193B3E00FD0C9F7F6CF462F4F70405D56
S1130B004A3318F0495D31FD4052419302D0A9F7B0
S1130B10EACFB4E0A6959795879577956795BA95AA
S1130B20C9F700976105710508959B01AC010A2E70
S1130B3006945795479537952795BA95C9F7620F47
S1130B40731F841F951FA01D08952F923F924F92EB
S1130B505F926F927F928F929F92AF92BF92CF9249
S1130B60DF92EF92FF920F931F93CF93DF93CDB752
S1130B70DEB7CA1BDB0B0FB6F894DEBF0FBECDBFCA
S1130B8009942A88398848885F846E847D848C849B
S1130B909B84AA84B984C884DF80EE80FD800C81A4
S1130BA01B81AA81B981CE0FD11D0FB6F894DEBF87
S10F0BB00FBECDBFED010895F894FFCFF7
S1130BBC00000002000000000A01000000003200E6
S10F0BCC0000204100010125640A000023
S9030000FC
