:100000000C9434000C9451000C9451000C94510049
:100010000C9451000C9451000C9451000C9451001C
:100020000C9451000C9451000C9451000C94210537
:100030000C94CF040C9451000C9451000C9451007A
:100040000C9451000C9451000C9465040C945100D4
:100050000C94B7040C9451000C9451000C94510072
:100060000C9451000C94510011241FBECFEFD8E026
:10007000DEBFCDBF11E0A0E0B1E0E8E9FEE002C0E4
:1000800005900D92A831B107D9F722E0A8E1B1E0BF
:1000900001C01D92A83AB207E1F70E94B6050C9480
:1000A0004A070C940000ECE7F0E080818F778083B2
:1000B00080818F7B8083EAE7F0E0808185688083A0
:1000C0000895E1E8F0E080818B608083EFE6F0E066
:1000D0008081866080830895909389008093880052
:1000E00070938B0060938A0008959093C50080936D
:1000F000C400E1ECF0E080E9808380818864808343
:1001000086E08093C2000895E1ECF0E090819F7E4C
:10011000908390819F779083E0ECF0E09081992329
:10012000E9F38093C6000895DF92EF92FF920F9358
:100130001F93CF93DF93182FD62F8DE00E9484005A
:100140008BE70E9484008AE00E9484008DE00E9478
:10015000840082E20E94840083E30E94840082E2A1
:100160000E9484008AE30E9484008AE00E94840046
:100170008DE00E9484008BE70E9484008AE00E9448
:1001800084008DE00E94840082E20E9484008DE65B
:100190000E94840086E60E94840083E60E94840018
:1001A00082E20E9484008AE30E9484008BE70E941E
:1001B000840082E20E94840082E70E94840085E637
:1001C0000E94840081E70E94840082E20E948400F1
:1001D0008AE30E94840082E20E948400C9E21C9F9C
:1001E000212D112422952F700CE90203C001112446
:1001F000810F911D0F2EFAE0EF2EF12CF02DB7019B
:100200000E940507D62E209F100D1124962F990FBE
:10021000892F880F880F890F181B822F0E94B40521
:100220000E9484008D2D0E94B4050E948400812FBD
:100230000E94B4050E94840082E20E9484008CE245
:100240000E94840082E20E94840083E60E9484006F
:1002500085E70E94840082E70E94840082E20E9477
:1002600084008AE30E94840082E20E948400DC9F72
:10027000212D112422952F700203C00111248D0F0E
:10028000911DB7010E940507C62F209FD00D112494
:10029000962F990F892F880F880F890FD81B822FCF
:1002A0000E94B4050E9484008C2F0E94B4050E9415
:1002B00084008D2F0E94B4050E94840082E20E9477
:1002C00084008DE70E9484008CE20E9484008AE012
:1002D0000E9484008DE00E948400DF91CF911F91E5
:1002E0000F91FF90EF90DF90089582E20E948400CA
:1002F00086E70E94840085E60E94840082E70E94CF
:10030000840082E20E9484008AE30E94840082E2E8
:100310000E94840081E30E9484008EE20E94840097
:1003200082E30E9484008EE20E94840083E30E94A4
:10033000840082E20E9484008CE20E9484008AE0B1
:100340000E9484008DE00E94840008958F929F9205
:10035000AF92BF92CF92DF92EF92FF920F931F93D3
:10036000CF93DF93D82F962E69017A0182E20E9403
:10037000840080E70E94840081E60E94840082E776
:100380000E94840081E60E9484008DE60E94840021
:1003900082E20E9484008AE30E9484008BE70E942C
:1003A000840082E20E94840080E70E94840087E744
:1003B0000E94840082E70E94840082E20E948400FE
:1003C0008AE30E94840082E20E948400C9E2DC9FEA
:1003D000212D112422952F701CE91203C001112434
:1003E0008D0F911D0F2EFAE0AF2EB12CF02DB5011F
:1003F0000E940507862E219FD00D1124962F990F5C
:10040000892F880F880F890FD81B822F0E94B4056F
:100410000E948400882D0E94B4050E9484008EE210
:100420000E9484008D2F0E94B4050E94840087E5FD
:100430000E94840082E20E9484008CE20E94840078
:1004400082E20E94840086E60E94840082E70E9485
:10045000840085E60E94840081E70E94840082E295
:100460000E9484008AE30E94840082E20E94840049
:100470008DEC989E812D1124869586958695282F42
:10048000220F922F990F990F920F991A0E94B4057B
:100490000E948400892D0E94B4050E94840088E493
:1004A0000E9484008AE70E94840082E20E94840005
:1004B0008CE20E94840082E20E94840083E60E9413
:1004C000840085E70E94840082E70E94840082E71E
:1004D0000E94840082E20E9484008AE30E948400D9
:1004E00082E20E9484000C9F212D112422952F70FE
:1004F0001203C0011124800F911DB5010E94050750
:10050000C62F219F000D1124962F990F892F880F38
:10051000880F890F081B822F0E94B4050E94840057
:100520008C2F0E94B4050E948400802F0E94B40585
:100530000E9484008DE60E94840081E40E94840071
:1005400082E20E9484008CE20E94840082E20E9487
:10055000840086E70E9484008FE60E9484008CE677
:100560000E94840084E70E94840082E20E9484004A
:100570008AE30E94840082E20E948400C701B601DF
:1005800028EE33E040E050E00E941907D22F28EE19
:1005900033E0D29FC001D39F900D1124092E000C8F
:1005A000AA0BBB0B46015701881A990AAA0ABB0A73
:1005B000C501B40124E630E040E050E00E94190794
:1005C000C22F14E6129FC0011124092E000CAA0BA1
:1005D000BB0BA5019401281B390B4A0B5B0BCA010D
:1005E000B9012AE030E040E050E00E941907022FF4
:1005F00038E1D39FC00C11241C9FC0181124902FE8
:10060000990F892F880F880F890FC81A8D2F0E9484
:10061000B4050E9484008C2F0E94B4050E948400BF
:100620008EE20E948400802F0E94B4050E94840004
:100630008C2D0E94B4050E94840086E50E948400EF
:1006400082E20E9484008DE70E9484008CE20E9476
:1006500084008AE00E9484008DE00E948400DF9183
:10066000CF911F910F91FF90EF90DF90CF90BF90AF
:10067000AF909F908F900895CF93DF93D82FC62F80
:1006800080912C01882351F182E20E94840083E64C
:100690000E9484008CE60E94840082E70E9484000D
:1006A00082E20E9484008AE30E94840082E20E9427
:1006B000840085E60E94840087E70E94840082E22D
:1006C0000E9484008CE20E9484008AE00E948400E0
:1006D0008DE00E94840010922C0136C08AE00E94B6
:1006E00084008DE00E948400C1117CC0D11145C0FE
:1006F00025C082E20E94840083E60E9484008FE687
:100700000E9484008CE60E9484008CE60E94840093
:1007100089E60E94840083E70E94840089E60E94A3
:1007200084008FE60E9484008EE60E94840082E2AC
:100730000E9484008DE50E94840006C08AE00E9429
:1007400084008DE00E9484008AE00E9484008DE095
:100750000E9484008DE70E9484008AE00E94840049
:100760008DE00E9484008DE70E9484008AE00E9450
:1007700084008DE00E9484004BC082E20E948400CD
:1007800085E60E94840087E70E94840082E20E943E
:1007900084008AE30E9484008BE50E94840082E248
:1007A0000E9484008AE60E94840081E60E94840000
:1007B0008DE60E94840082E20E948400BBCF82E228
:1007C0000E9484008AE60E94840081E60E948400E0
:1007D0008DE60E94840082E20E9484008CE20E94E6
:1007E000840087CF82E20E94840085E60E94840014
:1007F00087E70E94840082E20E9484008AE30E94CC
:1008000084008BE50E948400DD2309F472CFD7CFEA
:10081000DF91CF9108954F925F926F927F928F9266
:10082000AF92CF92EF92FF920F931F93CF93DF93EC
:10083000CDB7DEB7182FF62E29013A018A2D682D83
:100840000E9494000E947501A30192016F2D812FD7
:100850000E94A6016C2D8E2D0E943C03DF91CF914A
:100860001F910F91FF90EF90CF90AF908F907F905E
:100870006F905F904F900895CF93C82F8A3019F4EE
:100880008DE00E9484008C2F0E94840080E090E024
:10089000CF910895C097E4E6E89F9001E99F300D5D
:1008A000112460537109CB01880F991F660F771FC0
:1008B000660F771F660F771F680F791F620F731F10
:1008C000CA01C097860F971F08951F920F920FB607
:1008D0000F9211248F939F93EF93FF938091C60003
:1008E0008093A10280915A0190915B0101969093AF
:1008F0005B0180935A0180915A0190915B01459769
:100900004CF0E0915A01F0915B018091A102E35E0D
:10091000FE4F808380915A0190915B0182974CF049
:10092000E0915A01F0915B018091A102EA50FF4FE2
:10093000808380915A0190915B0186977CF0E1EC75
:10094000F0E080818F77808380818F7E808381E05B
:1009500080935C0110925B0110925A01FF91EF911C
:100960009F918F910F900FBE0F901F9018951F921F
:100970000F920FB60F9211248F93EF93FF93E1EC38
:10098000F0E0808180618083808180688083FF9136
:10099000EF918F910F900FBE0F901F9018951F929F
:1009A0000F920FB60F9211248F939F93809116018F
:1009B000811104C080911501882351F080915D015F
:1009C00090915E0180911201891758F02A9809C010
:1009D00080915D0190915E0180911201891708F06C
:1009E00029989F918F910F900FBE0F901F9018958F
:1009F00080911001909111014DE7489F9001499F0E
:100A0000300D11243695279536952795ABE7B4E13F
:100A10000E943B0796958795089560911301709108
:100A200014012091120188E893E10E94F106621BF3
:100A300071098DE7282F269FC001279F900D112453
:100A400008951F920F920FB60F9211242F933F9388
:100A50004F935F936F937F938F939F93AF93BF93C6
:100A6000EF93FF9380911601811104C080911501CD
:100A70008823B9F190915E0180911201891760F08D
:100A800080915D01811108C02A9A5D9A80915E0172
:100A90008F5F80935E0157C090915E01809112013B
:100AA0008917A0F45D982A980E940D056FEF7FEFDB
:100AB0000E946C0080911501811102C010921601F4
:100AC00010925E0181E080935D013DC010925D0156
:100AD0000E94F804682F70E08DE790E00E946C009F
:100AE00032C090915E0180911201891760F080916F
:100AF0005D01811108C05E9A299A80915E018F5F25
:100B000080935E0120C090915E018091120189174F
:100B100080F45E9829980E940D056FEF7FEF0E9488
:100B20006C0081E08093160110925E0180935D015C
:100B30000AC010925D010E94F804682F70E08DE7F2
:100B400090E00E946C00FF91EF91BF91AF919F9157
:100B50008F917F916F915F914F913F912F910F9066
:100B60000FBE0F901F901895805D089580E091E072
:100B70009093A5028093A402789483E390E00E946E
:100B800075000E9453000E94610084B1866084B9A0
:100B90008AB180668AB9C2E3D1E00F2EF8E12F2E28
:100BA000F1E03F2EF02D11E00F2EF8E24F2E512CE8
:100BB000612C712CF02D10922E0110922D011092AB
:100BC0002F0180915C01882309F408C14A81698161
:100BD000888150E070E090E00E944A0490933101D7
:100BE0008093300180E090E0FC01EE5CFE4F1082CB
:100BF000019686329105C1F7D10111969C9111970A
:100C00008C91853629F4812F973719F080E001C047
:100C100080E080932C0180912C01882321F0109298
:100C20000E0110920F01C0900E01E0900F01209173
:100C3000300130913101032E000C440B550B0F2E67
:100C4000F5E68F2EF02D0F2EF6E6AF2EF02D00E0FC
:100C500060E080E00E940B0410925C0110925B0146
:100C600010925A01BBC0C901880F991F880F991FA4
:100C7000FC01E15AFE4F4CE654E060E070E0408336
:100C8000518362837383FC01E155FE4F40825182A0
:100C900062827382FC01E150FE4F62EA73E080E001
:100CA00090E060837183828393832F5F3F4F243171
:100CB0003105C9F680E090E09C01220F331F220F1E
:100CC000331FF901E155FE4F4081518162817381EB
:100CD000F901E15AFE4FC080D180E280F380C41652
:100CE000D506E606F706F8F49C01220F331F220F03
:100CF000331FF901E155FE4F4081518162817381BB
:100D0000F901E15AFE4FC080D180E280F3804C1996
:100D10005D096E097F09F901EF5AFD4F4083518348
:100D2000628373831EC09C01220F331F220F331F67
:100D3000F901E15AFE4F4081518162817381F901CD
:100D4000E155FE4FC080D180E280F3804C195D09EF
:100D50006E097F09F901EF5AFD4F40835183628389
:100D60007383FC01EE0FFF1FEE0FFF1FDF01AF5A71
:100D7000BD4F4D915D916D917C9113974D915D911A
:100D80006D917C91E150FE4F408151816281738170
:100D9000408151816281738101968431910509F00E
:100DA0008BCF80E090E0FC01EE0FFF1FEE0FFF1FE6
:100DB000DF01AF5ABD4F4D915D916D917C91E15036
:100DC000FE4F40815181628173810196843191058A
:100DD00051F783E190E00197F1F7EDCE20E030E0AC
:100DE00042CFAA1BBB1B51E107C0AA1FBB1FA617FE
:100DF000B70710F0A61BB70B881F991F5A95A9F7C4
:100E000080959095BC01CD01089597FB072E16F4AF
:100E1000009407D077FD09D00E94F10607FC05D0A9
:100E20003EF4909581959F4F0895709561957F4F01
:100E30000895A1E21A2EAA1BBB1BFD010DC0AA1F1B
:100E4000BB1FEE1FFF1FA217B307E407F50720F033
:100E5000A21BB30BE40BF50B661F771F881F991FAE
:100E60001A9469F760957095809590959B01AC01F7
:100E7000BD01CF010895A29FB001B39FC001A39F00
:100E8000700D811D1124911DB29F700D811D1124C3
:080E9000911D0895F894FFCFB5
:100E980000000002000000003C0400000000010106
:080EA8003200204100010100AD
:00000001FF
