S01800004C696E656172436F6E74726F6C6C65722E737265638D
S11300000C9434000C9451000C9451000C94510045
S11300100C9451000C9451000C9451000C94510018
S11300200C9451000C9451000C9451000C945D01FB
S11300300C94E4000C9451000C9451000C94510065
S11300400C9451000C9451000C940D010C9451002B
S11300500C9451000C9451000C9451000C945100D8
S11300600C9451000C94510011241FBECFEFD8E022
S1130070DEBFCDBF11E0A0E0B1E0E0EFF4E002C0EC
S113008005900D92A830B107D9F721E0A8E0B1E0BE
S113009001C01D92A131B207E1F70E94F2010C9454
S11300A076020C940000E1E8F0E080818B608083AC
S11300B0EFE6F0E080818660808308959093890064
S11300C08093880070938B0060938A000895E5EC18
S11300D0F0E02081922B9083E4ECF0E09081892B76
S11300E08083E1ECF0E0808189608083E2ECF0E0E1
S11300F08081866080830895E0ECF0E0908199230C
S1130100E9F38093C60008958091C600089581E0C4
S11301108093090180910901811106C0E4E6F0E0B1
S113012080818F6E808319C080910901882341F0FA
S113013080910901833B20F481E080930A010DC082
S113014080910901833B38F0809109018F3F19F0B8
S113015010920A0102C010920A0110920801089537
S11301608DE00E947C008BE70E947C008DE00E9461
S11301707C0082E20E947C0083E30E947C0082E295
S11301800E947C008AE30E947C0082E00E947C0042
S11301908BE70E947C008DE00E947C0082E20E943A
S11301A07C008DE60E947C0086E60E947C0083E64B
S11301B00E947C0082E20E947C008AE30E947C0010
S11301C08DE00E947C0008951F920F920FB60F924B
S11301D011248F939F9380910601811104C0809113
S11301E00A01882351F080910B0190910C018091B8
S11301F00401891758F0299809C080910B01909146
S11302000C0180910401891708F05E989F918F91E9
S11302100F900FBE0F901F9018951F920F920FB65C
S11302200F9211242F933F934F935F936F937F9378
S11302308F939F93AF93BF93EF93FF930E94840098
S11302408093090181E080930801FF91EF91BF91B0
S1130250AF919F918F917F916F915F914F913F915A
S11302602F910F900FBE0F901F90189520910001B1
S1130270309101014091020150910301ADE7B0E0DA
S11302800E94570224E630E040E050E00E9426023B
S1130290822F0895609105012091040170E084EF9C
S11302A091E00E941202621B71098DE7282F269F9C
S11302B0C001279F900D112408951F920F920FB62D
S11302C00F9211242F933F934F935F936F937F93D8
S11302D08F939F93AF93BF93EF93FF938091060106
S11302E0811104C080910A018823C1F190910C010D
S11302F080910401891768F080910B01811109C074
S113030085B1866085B980910C018F5F80930C0163
S113031058C090910C01809104018917A0F4299888
S11303202A980E944A016FEF7FEF0E945E0080913D
S11303300A01811102C01092060110920C0181E0A1
S113034080930B013EC010920B010E943601682F6E
S113035070E08DE790E00E945E0033C090910C0144
S113036080910401891768F080910B01811109C003
S11303708BB180668BB980910C018F5F80930C01E7
S113038020C090910C0180910401891780F45E983B
S11303905D980E944A016FEF7FEF0E945E0081E04A
S11303A08093060110920C0180930B010AC01092F5
S11303B00B010E943601682F70E08DE790E00E94E7
S11303C05E00FF91EF91BF91AF919F918F917F91CB
S11303D06F915F914F913F912F910F900FBE0F90AE
S11303E01F901895789487E690E00E9467000E9419
S11303F0530084B1866084B98AB180668AB9EDE01D
S1130400F1E08AE4808383E481836BE788E70E94D8
S1130410B000809108018823E1F30E9487000E94C4
S11304203601F7CF97FB072E16F4009407D077FD1B
S113043009D00E94620207FC05D03EF49095819594
S11304409F4F0895709561957F4F0895A1E21A2EEC
S1130450AA1BBB1BFD010DC0AA1FBB1FEE1FFF1F64
S1130460A217B307E407F50720F0A21BB30BE40BB4
S1130470F50B661F771F881F991F1A9469F76095FB
S11304807095809590959B01AC01BD01CF010895B5
S1130490A29FB001B39FC001A39F700D811D1124C1
S11304A0911DB29F700D811D1124911D08950E940C
S11304B04802A59F900DB49F900DA49F800D911D9F
S11304C011240895AA1BBB1B51E107C0AA1FBB1F1F
S11304D0A617B70710F0A61BB70B881F991F5A95CC
S11304E0A9F780959095BC01CD010895F894FFCFAC
S10B04F032000000190D0100A7
S9030000FC
