S01800004C696E656172436F6E74726F6C6C65722E737265638D
S11300000C9434000C9451000C9451000C94510045
S11300100C9451000C9451000C9451000C94510018
S11300200C9451000C9451000C9451000C946601F2
S11300300C9416010C9451000C9451000C94510032
S11300400C9451000C9451000C940B010C9451002D
S11300500C9451000C9451000C9451000C945100D8
S11300600C9451000C94510011241FBECFEFD8E022
S1130070DEBFCDBF11E0A0E0B1E0EAEEF4E002C0E3
S113008005900D92A430B107D9F721E0A4E0B1E0C6
S113009001C01D92A537B207E1F70E94F9010C9443
S11300A073020C940000E1E8F0E080818B608083AF
S11300B0EFE6F0E080818660808308959093890064
S11300C08093880070938B0060938A000895E5EC18
S11300D0F0E02081922B9083E4ECF0E09081892B76
S11300E08083E1ECF0E0808181608083A2ECB0E069
S11300F08C9186608C938081806880830895809140
S11301000601882371F180E090E040E0FC01EF5E9D
S1130110FE4F20812A3309F44F5F4330D9F4FC01A8
S1130120EF5EFE4F3081FC01EE5EFE4F2081FC014C
S1130130ED5EFE4F808194E6399F800D1124382FA7
S1130140822F880F982F990F990F890F830F80930F
S11301500B0107C001962091060130E08217930736
S1130160ACF284E6E1E1F1E0DF011D928A95E9F762
S1130170109205011092040108958AEF80930B01F7
S113018080910B01811106C0E4E6F0E080818F6E5E
S113019080833EC080910B01882341F080910B0144
S11301A0833B20F481E080930C0132C080910B01E9
S11301B0833B00F180910B018F3FE1F010920C0121
S11301C020910B0130E0A5E9B3E00E944502685795
S11301D07C4E8F4F9F4F24E630E040E050E00E9479
S11301E0230220930701309308014093090150939F
S11301F00A010EC010920C0183E690E0A0E0B0E08A
S11302008093070190930801A0930901B0930A0118
S11302101092020108951F920F920FB60F921124AB
S11302205B9A0F900FBE0F901F9018951F920F921C
S11302300FB60F9211248F939F9380910301811124
S113024004C080910C01882351F080910D0190919C
S11302500E0180910001891758F02A9809C08091F5
S11302600D0190910E0180910001891708F02998E1
S11302709F918F910F900FBE0F901F901895209112
S11302800701309108014091090150910A01ADE73D
S1130290B0E00E94540224E630E040E050E00E94C6
S11302A02302822F0895609101012091000170E0E2
S11302B084EF91E00E940F02621B71098DE7282FE1
S11302C0269FC001279F900D112408951F920F921D
S11302D00FB60F9211242F933F934F935F936F9315
S11302E07F938F939F93AF93BF93EF93FF938091EB
S11302F00301811104C080910C018823B9F190910C
S11303000E0180910001891760F080910D01811127
S113031008C02A9A5D9A80910E018F5F80930E0126
S113032057C090910E01809100018917A0F45D9847
S11303302A980E9453016FEF7FEF0E945E00809124
S11303400C01811102C01092030110920E0181E090
S113035080930D013DC010920D010E943F01682F52
S113036070E08DE790E00E945E0032C090910E0133
S113037080910001891760F080910D01811108C0FE
S11303805E9A299A80910E018F5F80930E0120C09E
S113039090910E0180910001891780F45E9829984C
S11303A00E9453016FEF7FEF0E945E0081E0809313
S11303B0030110920E0180930D010AC010920D01E9
S11303C00E943F01682F70E08DE790E00E945E007C
S11303D0FF91EF91BF91AF919F918F917F916F9119
S11303E05F914F913F912F910F900FBE0F901F90EF
S11303F01895789483E390E00E9467000E9453006C
S113040084B1866084B98AB180668AB90E947F000B
S1130410809102018823D1F30E94BD00F7CF97FB9E
S1130420072E16F4009407D077FD09D00E945F02CE
S113043007FC05D03EF4909581959F4F08957095E3
S113044061957F4F0895A1E21A2EAA1BBB1BFD01E3
S11304500DC0AA1FBB1FEE1FFF1FA217B307E4079F
S1130460F50720F0A21BB30BE40BF50B661F771FF7
S1130470881F991F1A9469F76095709580959095D7
S11304809B01AC01BD01CF010895A29FB001B39FB0
S1130490C001A39F700D811D1124911DB29F700D89
S11304A0811D1124911D08950E944502A59F900D60
S11304B0B49F900DA49F800D911D11240895AA1B33
S11304C0BB1B51E107C0AA1FBB1FA617B70710F03B
S11304D0A61BB70B881F991F5A95A9F7809590956D
S10D04E0BC01CD010895F894FFCF8C
S10704EA200F0101D9
S9030000FC
