S01800004C696E656172436F6E74726F6C6C65722E737265638D
S11300000C9434000C943E000C943E000C943E007E
S11300100C943E000C943E000C943E000C943E0064
S11300200C943E000C943E000C943E000C943E0054
S11300300C943E000C943E000C943E000C943E0044
S11300400C943E000C943E000C9440000C943E0032
S11300500C943E000C943E000C943E000C943E0024
S11300600C943E000C943E0011241FBECFEFD8E048
S1130070DEBFCDBF0E944A000C944B000C940000DC
S11300801F920F920FB60F9211240F900FBE0F9074
S10D00901F901895FFCFF894FFCFDE
S9030000FC
