S01800004C696E656172436F6E74726F6C6C65722E737265638D
S11300000C9434000C9451000C9451000C94510045
S11300100C9451000C9451000C9451000C94510018
S11300200C9451000C9451000C9451000C946A01EE
S11300300C9418010C9451000C9451000C94510030
S11300400C9451000C9451000C94BD000C9451007C
S11300500C9400010C9451000C9451000C94510028
S11300600C9451000C94510011241FBECFEFD8E022
S1130070DEBFCDBF11E0A0E0B1E0E2E8F6E002C0EF
S113008005900D92A631B107D9F722E0A6E1B1E0BF
S113009001C01D92A139B207E1F70E94FD010C9441
S11300A03F030C940000ECE7F0E080818F778083BD
S11300B080818F7B8083EAE7F0E08081856880839C
S11300C00895E1E8F0E080818B608083EFE6F0E062
S11300D0808186608083089590938900809388004E
S11300E070938B0060938A0008959093C500809369
S11300F0C400E1ECF0E080E980838081886480833F
S113010086E08093C2000895E1ECF0E090819F7E48
S1130110908390819F779083E0ECF0E09081992325
S1130120E9F38093C6000895CF93C82F8A3019F459
S11301308DE00E9484008C2F0E94840080E090E077
S1130140CF910895C097E4E6E89F9001E99F300DB0
S1130150112460537109CB01880F991F660F771F13
S1130160660F771F660F771F680F791F620F731F63
S1130170CA01C097860F971F08951F920F920FB65A
S11301800F9211248F939F93EF93FF938091C60056
S113019080938A0280914301909144010196909347
S11301A04401809343018091430190914401459718
S11301B04CF0E0914301F091440180918A02EA5F9E
S11301C0FE4F8083809143019091440186977CF097
S11301D0E1ECF0E080818F77808380818F7E808363
S11301E081E0809345011092440110924301FF91F4
S11301F0EF919F918F910F900FBE0F901F901895C4
S11302001F920F920FB60F9211248F93EF93FF93C7
S1130210E1ECF0E08081806180838081806880836C
S1130220FF91EF918F910F900FBE0F901F90189533
S11302301F920F920FB60F9211248F939F93809168
S11302401401811104C080911301882351F080911D
S113025046019091470180911001891758F02A981E
S113026009C080914601909147018091100189173E
S113027008F029989F918F910F900FBE0F901F90B7
S1130280189580910E0190910F014DE7489F9001C0
S1130290499F300D11243695279536952795ABE760
S11302A0B4E10E94300396958795089560911101F9
S11302B0709112012091100188E893E10E941C03BF
S11302C0621B71098DE7282F269FC001279F900D7F
S11302D0112408951F920F920FB60F9211242F9399
S11302E03F934F935F936F937F938F939F93AF93BA
S11302F0BF93EF93FF9380911401811104C0809107
S113030013018823B9F19091470180911001891755
S113031060F080914601811108C02A9A5D9A80910B
S113032047018F5F8093470157C0909147018091A7
S113033010018917A0F45D982A980E9456016FEF66
S11303407FEF0E946C0080911301811102C0109212
S113035014011092470181E0809346013DC0109240
S113036046010E944101682F70E08DE790E00E94F1
S11303706C0032C09091470180911001891760F0A0
S113038080914601811108C05E9A299A80914701A3
S11303908F5F8093470120C09091470180911001A5
S11303A0891780F45E9829980E9456016FEF7FEFB9
S11303B00E946C0081E080931401109247018093A5
S11303C046010AC0109246010E944101682F70E064
S11303D08DE790E00E946C00FF91EF91BF91AF9187
S11303E09F918F917F916F915F914F913F912F9149
S11303F00F900FBE0F901F901895CF93DF9300D0EE
S113040000D0CDB7DEB780E091E090938E02809368
S11304108D02789483E390E00E9475000E9453005B
S11304200E94610084B1866084B98AB180668AB909
S11304300F2EFBE12F2EF1E03F2EF02D0F2EFCE6C8
S11304404F2EF4E05F2E612C712CF02D0F2EF8E26C
S11304508F2E912CA12CB12CF02D0F2EF2EACF2E41
S1130460F3E0DF2EE12CF12CF02D10921701109205
S113047016011092180180914501882309F4D9C00E
S113048040911D0160911C01F101808150E070E0F8
S113049090E00E94A20090931A0180931901809128
S11304A0190190911A010E94840080E090E0FC01FF
S11304B0E55EFE4F1082019686329105C1F71092D7
S11304C045011092440110924301B3C0C901880F41
S11304D0991F880F991FFC01E85BFE4F40825182EF
S11304E062827382FC01E856FE4F80829182A2826E
S11304F0B382FC01E851FE4FC082D182E282F382D2
S11305002F5F3F4F2431310509F780E090E09C01D3
S1130510220F331F220F331FF901E856FE4F40818B
S1130520518162817381F901E85BFE4F0081118181
S1130530228133810417150726073707F8F4DC01F5
S1130540AA0FBB1FAA0FBB1FFD01E856FE4F408137
S1130550518162817381FD01E85BFE4F008111814D
S113056022813381401B510B620B730BFD01E65C4E
S1130570FD4F40835183628373831EC0DC01AA0F45
S1130580BB1FAA0FBB1FFD01E85BFE4F40815181D9
S113059062817381FD01E856FE4F00811181228141
S11305A03381401B510B620B730BFD01E65CFD4F65
S11305B04083518362837383FC01EE0FFF1FEE0FB0
S11305C0FF1FDF01A65CBD4F4D915D916D917C9144
S11305D013974D915D916D917C91E851FE4F40814F
S11305E0518162817381408151816281738101965D
S11305F08431910509F08BCF80E090E0FC01EE0F8F
S1130600FF1FEE0FFF1FDF01A65CBD4F4D915D91F3
S11306106D917C91E851FE4F4081518162817381DB
S113062001968431910551F783E190E00197F1F748
S11306301CCF20E030E04ACFAA1BBB1B51E107C00E
S1130640AA1FBB1FA617B70710F0A61BB70B881F5E
S1130650991F5A95A9F780959095BC01CD010895ED
S1130660A29FB001B39FC001A39F700D811D1124EF
S1130670911DB29F700D811D1124911D0895F89450
S1050680FFCFA6
S1130682000000020000000094000000000032009C
S1090692204100010100FB
S9030000FC
