:100000000C9434000C9451000C9451000C94510049
:100010000C9451000C9451000C9451000C9451001C
:100020000C9451000C9451000C9451000C945A0102
:100030000C94E1000C9451000C9451000C9451006C
:100040000C9451000C9451000C940A010C94510032
:100050000C9451000C9451000C9451000C945100DC
:100060000C9451000C94510011241FBECFEFD8E026
:10007000DEBFCDBF11E0A0E0B1E0E4E4F5E002C0F6
:1000800005900D92A830B107D9F721E0A8E0B1E0C2
:1000900001C01D92AD30B207E1F70E94EF010C9450
:1000A000A0020C940000ECE7F0E080818F77808361
:1000B000808180648083808185608083EAE7F0E0CE
:1000C00080818668808380818E7F80830895E1E8C7
:1000D000F0E080818B608083EFE6F0E080818660D5
:1000E00080830895909389008093880070938B009B
:1000F00060938A000895E5ECF0E02081922B9083D4
:10010000E4ECF0E09081892B8083E1ECF0E08081E9
:1001100088698083E2ECF0E08081866080830895C6
:10012000E0ECF0E090819923E9F38093C600089514
:100130008091C600089581E08093090180910901B2
:10014000811106C0E4E6F0E080818F6E808336C0C6
:1001500080910901882329F180910901833B08F5E9
:100160008091090121E0823B08F420E030E040E08A
:1001700050E063E67AEE83EA91E30E940D0220E804
:1001800036E94FEF5FEF0E94530220930001309356
:100190000101409302015093030181E080930A0121
:1001A0000DC080910901833B38F0809109018F3F98
:1001B00019F010920A0102C010920A01109208016F
:1001C00008951F920F920FB60F9211248F939F9351
:1001D00080910601811104C080910A01882351F0A9
:1001E00080910B0190910C0180910401891758F0C6
:1001F000299809C080910B0190910C018091040114
:10020000891708F05E989F918F910F900FBE0F9005
:100210001F9018951F920F920FB60F9211242F93D3
:100220003F934F935F936F937F938F939F93AF937E
:10023000BF93EF93FF930E9498008093090181E0A0
:1002400080930801FF91EF91BF91AF919F918F91A2
:100250007F916F915F914F913F912F910F900FBEC2
:100260000F901F901895209100013091010140914D
:10027000020150910301ADE7B0E00E94720224E652
:1002800030E040E050E00E943102822F08956091FA
:1002900005012091040170E084EF91E00E941D02AD
:1002A000621B71098DE7282F269FC001279F900DA3
:1002B000112408951F920F920FB60F9211242F93BD
:1002C0003F934F935F936F937F938F939F93AF93DE
:1002D000BF93EF93FF9380910601811104C0809139
:1002E0000A018823C1F190910C01809104018917C2
:1002F00068F080910B01811109C085B1866085B9D4
:1003000080910C018F5F80930C0158C090910C017B
:10031000809104018917A0F429982A980E94470126
:100320006FEF7FEF0E94720080910A01811102C07D
:100330001092060110920C0181E080930B013EC0E7
:1003400010920B010E943301682F70E08DE790E05E
:100350000E94720033C090910C01809104018917B2
:1003600068F080910B01811109C08BB180668BB957
:1003700080910C018F5F80930C0120C090910C0143
:1003800080910401891780F45E985D980E9447016E
:100390006FEF7FEF0E94720081E080930601109260
:1003A0000C0180930B010AC010920B010E943301D3
:1003B000682F70E08DE790E00E947200FF91EF914E
:1003C000BF91AF919F918F917F916F915F914F916D
:1003D0003F912F910F900FBE0F901F90189578941A
:1003E00063E370E080E090E00E947B000E94530095
:1003F0000E94670084B1866084B98AB180668AB938
:1004000087E390E00E949000809108018823C1F367
:100410000E949B000E943301F3CFDB018F939F93D7
:100420000E947202BF91AF91A29F800D911DA39F68
:10043000900DB29F900D1124089597FB072E16F48E
:10044000009407D077FD09D00E947D0207FC05D0FB
:100450003EF4909581959F4F0895709561957F4FDB
:100460000895A1E21A2EAA1BBB1BFD010DC0AA1FF5
:10047000BB1FEE1FFF1FA217B307E407F50720F00D
:10048000A21BB30BE40BF50B661F771F881F991F88
:100490001A9469F760957095809590959B01AC01D1
:1004A000BD01CF010895052E97FB1EF400940E9414
:1004B0006A0257FD07D00E94310207FC03D04EF4B8
:1004C0000C946A0250954095309521953F4F4F4FBF
:1004D0005F4F089590958095709561957F4F8F4FF0
:1004E0009F4F08950E949102A59F900DB49F900D7B
:1004F000A49F800D911D11240895AA1BBB1B51E1DF
:1005000007C0AA1FBB1FA617B70710F0A61BB70B83
:10051000881F991F5A95A9F780959095BC01CD0128
:100520000895A29FB001B39FC001A39F700D811DCC
:100530001124911DB29F700D811D1124911D0895EC
:04054000F894FFCF5D
:08054400320000000A0D010065
:00000001FF
