S01800004C696E656172436F6E74726F6C6C65722E737265638D
S11300000C9434000C9451000C9451000C94510045
S11300100C9451000C9451000C9451000C94510018
S11300200C9451000C9451000C9451000C94A904AC
S11300300C944F040C9451000C9451000C945100F6
S11300400C9451000C9451000C9478040C945100BD
S11300500C9451000C9451000C9451000C945100D8
S11300600C9451000C94510011241FBECFEFD8E022
S1130070DEBFCDBF11E0A0E0B1E0E0EAFBE002C0EA
S113008005900D92A830B107D9F721E0A8E0B1E0BE
S113009001C01D92AD30B207E1F70E9440050C94F7
S11300A0CE050C940000E1E8F0E080818B60808351
S11300B0EFE6F0E080818660808308959093890064
S11300C08093880070938B0060938A000895E5EC18
S11300D0F0E02081922B9083E4ECF0E09081892B76
S11300E08083E1ECF0E0808189608083E2ECF0E0E1
S11300F08081866080830895E0ECF0E0908199230C
S1130100E9F38093C600089581E08093090180910A
S11301100901811106C0E4E6F0E080818F6E8083DE
S113012019C080910901882341F080910901833B22
S113013020F481E080930A010DC080910901833B82
S113014038F0809109018F3F19F010920A0102C022
S113015010920A01109208010895DF92EF92FF9223
S11301600F931F93CF93DF93182FD62F8DE00E9408
S11301707C008BE70E947C008AE00E947C008DE07A
S11301800E947C0082E20E947C0083E30E947C0047
S113019082E20E947C008AE30E947C008AE00E9442
S11301A07C008DE00E947C008BE70E947C008AE04A
S11301B00E947C008DE00E947C0082E20E947C0010
S11301C08DE60E947C0086E60E947C0083E60E9405
S11301D07C0082E20E947C008AE30E947C008BE720
S11301E00E947C0082E20E947C0082E70E947C00E4
S11301F085E60E947C0081E70E947C0082E20E94E6
S11302007C008AE30E947C0082E20E947C00C9E2B6
S11302101C9F212D112422952F700CE90203C0018B
S11302201124810F911D0F2EFAE0EF2EF12CF02DE9
S1130230B7010E946A05D62E209F100D1124962F17
S1130240990F892F880F880F890F181B822F0E94FE
S11302503E050E947C008D2D0E943E050E947C007C
S1130260812F0E943E050E947C0082E20E947C0055
S11302708CE20E947C0082E20E947C0083E60E9461
S11302807C0085E70E947C0082E70E947C0082E279
S11302900E947C008AE30E947C0082E20E947C002F
S11302A0DC9F212D112422952F700203C0011124FB
S11302B08D0F911DB7010E946A05C62F209FD00D96
S11302C01124962F990F892F880F880F890FD81B17
S11302D0822F0E943E050E947C008C2F0E943E05C6
S11302E00E947C008D2F0E943E050E947C0082E2C9
S11302F00E947C008DE70E947C008CE20E947C00BE
S11303008AE00E947C008DE00E947C00DF91CF9106
S11303101F910F91FF90EF90DF90089582E20E9469
S11303207C0086E70E947C0085E60E947C0082E7D0
S11303300E947C0082E20E947C008AE30E947C008E
S113034082E20E947C0081E30E947C008EE20E9493
S11303507C0082E30E947C008EE20E947C0083E3A6
S11303600E947C0082E20E947C008CE20E947C005D
S11303708AE00E947C008DE00E947C000895AF9288
S1130380BF92CF92DF92EF92FF920F931F93CF937E
S1130390DF93F82EB62EEA01022F82E20E947C003F
S11303A080E70E947C0081E60E947C0082E70E9434
S11303B07C0081E60E947C008DE60E947C0082E243
S11303C00E947C008AE30E947C008BE70E947C00F0
S11303D082E20E947C0080E70E947C0087E70E9402
S11303E07C0082E70E947C0082E20E947C008AE317
S11303F00E947C0082E20E947C0019E2F19E212D81
S1130400112422952F700F2EFCE9EF2EF02D3E2D96
S11304103203C00111248F0D911D0F2EFAE0CF2E4F
S1130420D12CF02DB6010E946A05A62E2E9DF00C4B
S11304301124962F990F892F880F880F890FF81A86
S1130440822F0E943E050E947C008A2D0E943E0558
S11304500E947C008EE20E947C008F2D0E943E054B
S11304600E947C0087E50E947C0082E20E947C005E
S11304708CE20E947C0082E20E947C0086E60E945C
S11304807C0082E70E947C0085E60E947C0081E774
S11304900E947C0082E20E947C008AE30E947C002D
S11304A082E20E947C008DECB89E812D11248695F9
S11304B086958695282F220F922F990F990F920FC8
S11304C0B91A0E943E050E947C008B2D0E943E05B5
S11304D00E947C0088E40E947C008AE70E947C00E1
S11304E082E20E947C008CE20E947C0082E20E94F4
S11304F07C0083E60E947C0085E70E947C0082E702
S11305000E947C0082E70E947C0082E20E947C00C0
S11305108AE30E947C0082E20E947C00019F312DCC
S1130520112432953F706E2D6303C0011124800F96
S1130530911DB6010E946A05162F3E9D000D1124DF
S1130540962F990F892F880F880F890F081B832FE7
S11305500E943E050E947C00812F0E943E050E945D
S11305607C00802F0E943E050E947C008DE60E9444
S11305707C0081E40E947C0082E20E947C008CE288
S11305800E947C0082E20E947C0086E70E947C003C
S11305908FE60E947C008CE60E947C0084E70E9427
S11305A07C0082E20E947C008AE30E947C0082E25A
S11305B00E947C009E0136952795369527953695A1
S11305C02795A5ECB0E20E94A005FC01F295E29506
S11305D0EF70EF27FF70EF2788E19CEFE89FA00101
S11305E0E99F500D11244C0F5D1F9A0136952795F4
S11305F036952795ABE7B4E10E94A0058C011695CA
S113060007956E2D600390011124240F351FADEC66
S1130610BCEC0E94A0056C01D694C794D694C794F0
S1130620D694C79488E1E89FC00D1124E09EC00DC4
S113063011249C2D990F892F880F880F890FC81BAF
S11306408E2F0E943E050E947C00802F0E943E0552
S11306500E947C008EE20E947C008C2D0E943E054C
S11306600E947C008C2F0E943E050E947C0086E53F
S11306700E947C0082E20E947C008DE70E947C0044
S11306808CE20E947C008AE00E947C008DE00E9443
S11306907C00DF91CF911F910F91FF90EF90DF903D
S11306A0CF90BF90AF900895CF93DF93C62FD42FF0
S11306B0811128C082E20E947C0083E60E947C00B3
S11306C08CE60E947C0082E70E947C0082E20E9409
S11306D07C008AE30E947C0082E20E947C0085E622
S11306E00E947C0087E70E947C0082E20E947C00DA
S11306F08CE20E947C008AE00E947C008DE00E94D3
S11307007C0006C08AE00E947C008DE00E947C0090
S1130710D1117CC0C11145C025C082E20E947C0079
S113072083E60E947C008FE60E947C008CE60E9497
S11307307C008CE60E947C0089E60E947C0083E7B2
S11307400E947C0089E60E947C008FE60E947C0067
S11307508EE60E947C0082E20E947C008DE50E946D
S11307607C0006C08AE00E947C008DE00E947C0030
S11307708AE00E947C008DE00E947C008DE70E944C
S11307807C008AE00E947C008DE00E947C008DE762
S11307900E947C008AE00E947C008DE00E947C0024
S11307A04BC082E20E947C0085E60E947C0087E7C1
S11307B00E947C0082E20E947C008AE30E947C000A
S11307C08BE50E947C0082E20E947C008AE60E9403
S11307D07C0081E60E947C008DE60E947C0082E21F
S11307E00E947C00BBCF82E20E947C008AE60E94C9
S11307F07C0081E60E947C008DE60E947C0082E2FF
S11308000E947C008CE20E947C0087CF82E20E94DE
S11308107C0085E60E947C0087E70E947C0082E2DF
S11308200E947C008AE30E947C008BE50E947C008D
S1130830CC2309F472CFD7CFDF91CF9108956F9273
S11308407F928F92AF92CF92DF92EF92FF920F93AB
S11308501F93CF93DF93CDB7DEB7182FF62E3A014F
S1130860D22E8A2D682D0E94AD000E948E012D2D5E
S1130870A3016F2D812F0E94BF014C2D6E2D802F5F
S11308800E945403DF91CF911F910F91FF90EF903D
S1130890DF90CF90AF908F907F906F9008951F92CC
S11308A00F920FB60F9211248F939F93809106019C
S11308B0811104C080910A01882351F080910B01B9
S11308C090910C0180910401891758F0299809C06E
S11308D080910B0190910C0180910401891708F01B
S11308E05E989F918F910F900FBE0F901F90189557
S11308F01F920F920FB60F9211240F900FBE0F90FC
S11309001F9018952091000130910101409102013E
S113091050910301ADE7B0E00E94AF0524E630E05A
S113092040E050E00E947E05822F08956091050109
S11309302091040170E084EF91E00E946A05621B3B
S113094071098DE7282F269FC001279F900D112440
S113095008951F920F920FB60F9211242F933F9375
S11309604F935F936F937F938F939F93AF93BF93B3
S1130970EF93FF9380910601811104C080910A01D5
S11309808823C1F190910C0180910401891768F0CA
S113099080910B01811109C085B1866085B9809170
S11309A00C018F5F80930C0158C090910C018091D1
S11309B004018917A0F429982A980E9496046FEFDD
S11309C07FEF0E945E0080910A01811102C01092A3
S11309D0060110920C0181E080930B013EC010923D
S11309E00B010E948204682F70E08DE790E00E9462
S11309F05E0033C090910C0180910401891768F066
S1130A0080910B01811109C08BB180668BB98091F3
S1130A100C018F5F80930C0120C090910C01809198
S1130A200401891780F45E985D980E9496046FEF24
S1130A307FEF0E945E0081E08093060110920C011A
S1130A4080930B010AC010920B010E948204682F4C
S1130A5070E08DE790E00E945E00FF91EF91BF91FE
S1130A60AF919F918F917F916F915F914F913F9142
S1130A702F910F900FBE0F901F901895805D0895D1
S1130A80789487E690E00E9467000E94530084B146
S1130A90866084B98AB180668AB90F2EFBE78F2EEF
S1130AA0F02D0F2EF8E7AF2EF02DCC24C394EE24B6
S1130AB0E39400E024E140ED54E06FE08CE00E9418
S1130AC01F04809108018823E1F30E9484000E949E
S1130AD08204F7CF97FB072E16F4009407D077FD16
S1130AE009D00E94BA0507FC05D03EF49095819583
S1130AF09F4F0895709561957F4F0895A1E21A2E36
S1130B00AA1BBB1BFD010DC0AA1FBB1FEE1FFF1FAD
S1130B10A217B307E407F50720F0A21BB30BE40BFD
S1130B20F50B661F771F881F991F1A9469F7609544
S1130B307095809590959B01AC01BD01CF010895FE
S1130B40A29FB001B39FC001A39F700D811D11240A
S1130B50911DB29F700D811D1124911D08950E9455
S1130B60A005A59F900DB49F900DA49F800D911D8D
S1130B7011240895AA1BBB1B51E107C0AA1FBB1F68
S1130B80A617B70710F0A61BB70B881F991F5A9515
S1130B90A9F780959095BC01CD010895F894FFCFF5
S10B0BA032000000190D0100F0
S9030000FC
